{"project/contracts/Noodl3Loyalty.sol":{"Noodl3Loyalty":{"abi":[{"inputs":[],"stateMutability":"nonpayable","type":"constructor"},{"inputs":[],"name":"AmountBelowMinimum","type":"error"},{"inputs":[],"name":"ClaimAlreadyConsumed","type":"error"},{"inputs":[],"name":"ClaimNotFound","type":"error"},{"inputs":[],"name":"InvalidStore","type":"error"},{"inputs":[],"name":"InvalidStoreConfig","type":"error"},{"inputs":[],"name":"NotEnoughStamps","type":"error"},{"inputs":[],"name":"NotOwner","type":"error"},{"inputs":[],"name":"NotStoreManager","type":"error"},{"inputs":[],"name":"StoreInactive","type":"error"},{"inputs":[],"name":"StoreNotFound","type":"error"},{"inputs":[],"name":"TransferFailed","type":"error"},{"anonymous":false,"inputs":[{"indexed":true,"internalType":"bytes32","name":"storeId","type":"bytes32"},{"indexed":true,"internalType":"address","name":"user","type":"address"},{"indexed":true,"internalType":"address","name":"token","type":"address"},{"indexed":false,"internalType":"uint256","name":"amount","type":"uint256"},{"indexed":false,"internalType":"string","name":"itemRef","type":"string"},{"indexed":false,"internalType":"uint32","name":"stampsEarned","type":"uint32"},{"indexed":false,"internalType":"uint32","name":"totalStamps","type":"uint32"},{"indexed":false,"internalType":"address","name":"payout","type":"address"}],"name":"PurchaseRecorded","type":"event"},{"anonymous":false,"inputs":[{"indexed":true,"internalType":"uint256","name":"claimId","type":"uint256"},{"indexed":true,"internalType":"bytes32","name":"storeId","type":"bytes32"},{"indexed":true,"internalType":"address","name":"user","type":"address"},{"indexed":false,"internalType":"uint8","name":"rewardType","type":"uint8"},{"indexed":false,"internalType":"uint256","name":"rewardValue","type":"uint256"},{"indexed":false,"internalType":"uint32","name":"burnedStamps","type":"uint32"}],"name":"RewardClaimed","type":"event"},{"anonymous":false,"inputs":[{"indexed":true,"internalType":"uint256","name":"claimId","type":"uint256"},{"indexed":true,"internalType":"bytes32","name":"storeId","type":"bytes32"},{"indexed":true,"internalType":"address","name":"manager","type":"address"},{"indexed":false,"internalType":"address","name":"user","type":"address"}],"name":"RewardConsumed","type":"event"},{"anonymous":false,"inputs":[{"indexed":true,"internalType":"bytes32","name":"storeId","type":"bytes32"},{"indexed":false,"internalType":"address","name":"payout","type":"address"},{"indexed":false,"internalType":"address","name":"manager","type":"address"},{"indexed":false,"internalType":"address","name":"token","type":"address"},{"indexed":false,"internalType":"uint256","name":"minPurchaseAmount","type":"uint256"},{"indexed":false,"internalType":"uint32","name":"stampsPerPurchase","type":"uint32"},{"indexed":false,"internalType":"uint32","name":"stampsRequired","type":"uint32"},{"indexed":false,"internalType":"uint8","name":"rewardType","type":"uint8"},{"indexed":false,"internalType":"uint256","name":"rewardValue","type":"uint256"},{"indexed":false,"internalType":"bool","name":"active","type":"bool"}],"name":"StoreConfigured","type":"event"},{"inputs":[{"internalType":"bytes32","name":"storeId","type":"bytes32"}],"name":"claimReward","outputs":[{"internalType":"uint256","name":"claimId","type":"uint256"}],"stateMutability":"nonpayable","type":"function"},{"inputs":[{"internalType":"bytes32","name":"storeId","type":"bytes32"},{"internalType":"address","name":"payout","type":"address"},{"internalType":"address","name":"manager","type":"address"},{"internalType":"address","name":"token","type":"address"},{"internalType":"uint256","name":"minPurchaseAmount","type":"uint256"},{"internalType":"uint32","name":"stampsPerPurchase","type":"uint32"},{"internalType":"uint32","name":"stampsRequired","type":"uint32"},{"internalType":"uint8","name":"rewardType","type":"uint8"},{"internalType":"uint256","name":"rewardValue","type":"uint256"},{"internalType":"bool","name":"active","type":"bool"}],"name":"configureStore","outputs":[],"stateMutability":"nonpayable","type":"function"},{"inputs":[{"internalType":"uint256","name":"claimId","type":"uint256"}],"name":"consumeReward","outputs":[],"stateMutability":"nonpayable","type":"function"},{"inputs":[{"internalType":"uint256","name":"claimId","type":"uint256"}],"name":"getClaim","outputs":[{"components":[{"internalType":"uint256","name":"id","type":"uint256"},{"internalType":"bytes32","name":"storeId","type":"bytes32"},{"internalType":"address","name":"user","type":"address"},{"internalType":"uint32","name":"burnedStamps","type":"uint32"},{"internalType":"enum Noodl3Loyalty.RewardType","name":"rewardType","type":"uint8"},{"internalType":"uint256","name":"rewardValue","type":"uint256"},{"internalType":"uint40","name":"claimedAt","type":"uint40"},{"internalType":"uint40","name":"consumedAt","type":"uint40"},{"internalType":"bool","name":"consumed","type":"bool"},{"internalType":"bool","name":"exists","type":"bool"}],"internalType":"struct Noodl3Loyalty.Claim","name":"","type":"tuple"}],"stateMutability":"view","type":"function"},{"inputs":[{"internalType":"address","name":"user","type":"address"},{"internalType":"bytes32","name":"storeId","type":"bytes32"}],"name":"getProgress","outputs":[{"internalType":"uint32","name":"stamps","type":"uint32"},{"internalType":"uint32","name":"stampsRequired","type":"uint32"},{"internalType":"uint32","name":"stampsPerPurchase","type":"uint32"},{"internalType":"uint8","name":"rewardType","type":"uint8"},{"internalType":"uint256","name":"rewardValue","type":"uint256"},{"internalType":"bool","name":"canClaim","type":"bool"}],"stateMutability":"view","type":"function"},{"inputs":[{"internalType":"bytes32","name":"storeId","type":"bytes32"}],"name":"getStore","outputs":[{"components":[{"internalType":"address","name":"payout","type":"address"},{"internalType":"address","name":"manager","type":"address"},{"internalType":"address","name":"token","type":"address"},{"internalType":"uint256","name":"minPurchaseAmount","type":"uint256"},{"internalType":"uint32","name":"stampsPerPurchase","type":"uint32"},{"internalType":"uint32","name":"stampsRequired","type":"uint32"},{"internalType":"enum Noodl3Loyalty.RewardType","name":"rewardType","type":"uint8"},{"internalType":"uint256","name":"rewardValue","type":"uint256"},{"internalType":"bool","name":"active","type":"bool"},{"internalType":"bool","name":"exists","type":"bool"}],"internalType":"struct Noodl3Loyalty.Store","name":"","type":"tuple"}],"stateMutability":"view","type":"function"},{"inputs":[],"name":"nextClaimId","outputs":[{"internalType":"uint256","name":"","type":"uint256"}],"stateMutability":"view","type":"function"},{"inputs":[],"name":"owner","outputs":[{"internalType":"address","name":"","type":"address"}],"stateMutability":"view","type":"function"},{"inputs":[{"internalType":"bytes32","name":"storeId","type":"bytes32"},{"internalType":"uint256","name":"amount","type":"uint256"},{"internalType":"string","name":"itemRef","type":"string"}],"name":"purchase","outputs":[],"stateMutability":"nonpayable","type":"function"}],"evm":{"bytecode":{"linkReferences":{},"object":"60a060405260015f55348015610013575f80fd5b50336080526080516112dc6100375f395f818161012401526104e301526112dc5ff3fe608060405234801561000f575f80fd5b5060043610610090575f3560e01c8063a0021cf111610063578063a0021cf11461015e578063c2a3880114610174578063f368e15c14610187578063f5414023146101a7578063f940b313146101ba575f80fd5b806331fb697c1461009457806333c945cc146100ea5780635aef2447146100ff5780638da5cb5b1461011f575b5f80fd5b6100a76100a2366004610e72565b6101cd565b6040805163ffffffff97881681529587166020870152939095169284019290925260ff166060830152608082015290151560a082015260c0015b60405180910390f35b6100fd6100f8366004610e9a565b61025c565b005b61011261010d366004610f13565b610384565b6040516100e19190610f5e565b6101467f000000000000000000000000000000000000000000000000000000000000000081565b6040516001600160a01b0390911681526020016100e1565b6101665f5481565b6040519081526020016100e1565b6100fd61018236600461103b565b6104d8565b61019a610195366004610f13565b6107ee565b6040516100e191906110e5565b6101666101b5366004610f13565b6107ff565b6100fd6101c8366004610f13565b610ad4565b5f805f805f805f6101dd88610c00565b6001600160a01b038a165f9081526002602090815260408083208c845290915290205460a0820151608083015160c084015163ffffffff9093169a509098509650909150600181111561023257610232610f2a565b93508060e0015192508060a0015163ffffffff168763ffffffff1610159150509295509295509295565b5f61026685610c00565b905080610100015161028b576040516351c16f1960e01b815260040160405180910390fd5b80606001518410156102b057604051632fcd1a0f60e01b815260040160405180910390fd5b6102c3816040015133835f015187610d02565b6080810151335f90815260026020908152604080832089845290915281205490916102f39163ffffffff166111ac565b335f8181526002602090815260408083208b845290915290819020805463ffffffff191663ffffffff8516179055848101516080860151865192519495506001600160a01b03909116938a927f22785bcb2a49acc94ba1f1506e61bdf297a86638017991fd186024c1493efd9392610374928c928c928c9290918b916111d0565b60405180910390a4505050505050565b60408051610140810182525f80825260208201819052918101829052606081018290526080810182905260a0810182905260c0810182905260e0810182905261010081018290526101208101919091525f828152600360209081526040808320815161014081018352815481526001808301549482019490945260028201546001600160a01b03811693820193909352600160a01b830463ffffffff1660608201529290916080840191600160c01b90910460ff169081111561044957610449610f2a565b600181111561045a5761045a610f2a565b81526003820154602082015260049091015464ffffffffff808216604084015265010000000000820416606083015260ff600160501b8204811615156080840152600160581b90910416151560a0909101526101208101519091506104d25760405163022af77760e11b815260040160405180910390fd5b92915050565b336001600160a01b037f00000000000000000000000000000000000000000000000000000000000000001614610521576040516330cd747160e01b815260040160405180910390fd5b8961053e576040516204b76160e91b815260040160405180910390fd5b6001600160a01b038916158061055b57506001600160a01b038816155b8061056d57506001600160a01b038716155b8061057c575063ffffffff8516155b8061058b575063ffffffff8416155b80610594575081155b806105a25750600160ff8416115b156105c05760405163cf354ccd60e01b815260040160405180910390fd5b6040518061014001604052808a6001600160a01b03168152602001896001600160a01b03168152602001886001600160a01b031681526020018781526020018663ffffffff1681526020018563ffffffff1681526020018460ff16600181111561062c5761062c610f2a565b600181111561063d5761063d610f2a565b81526020808201859052831515604080840191909152600160609384018190525f8f8152818452829020855181546001600160a01b039182166001600160a01b03199182161783559487015182840180549183169187169190911790559286015160028201805491909416941693909317909155918301516003820155608083015160048201805460a086015163ffffffff9081166401000000000267ffffffffffffffff199092169316929092179190911780825560c0850151929368ff00000000000000001990911690600160401b90849081111561072057610720610f2a565b021790555060e08281015160058301556101008084015160069093018054610120958601511515830261ff00199515159590951661ffff199091161793909317909255604080516001600160a01b038e811682528d811660208301528c1681830152606081018b905263ffffffff8a81166080830152891660a082015260ff881660c08201529182018690528415159282019290925290518c927f8e4363fc554392bf632bd4ea51c03fa520b64fdfb8f88a299d40933240bf2297928290030190a250505050505050505050565b6107f6610e0b565b6104d282610c00565b5f8061080a83610c00565b905080610100015161082f576040516351c16f1960e01b815260040160405180910390fd5b335f90815260026020908152604080832086845290915290205460a082015163ffffffff918216911681101561087857604051630c464fc960e41b815260040160405180910390fd5b60a08201516108879082611228565b335f9081526002602090815260408083208884529091528120805463ffffffff191663ffffffff939093169290921790915580549350600190806108cb8387611245565b92505081905550604051806101400160405280848152602001858152602001336001600160a01b031681526020018360a0015163ffffffff1681526020018360c00151600181111561091f5761091f610f2a565b815260e084015160208083019190915264ffffffffff42166040808401919091525f60608085018290526080808601839052600160a09096018690528983526003855291839020865181559386015184860155918501516002840180549387015163ffffffff16600160a01b026001600160c01b03199094166001600160a01b03909216919091179290921780835590850151929360ff60c01b1990911690600160c01b9084908111156109d5576109d5610f2a565b021790555060a0820151600382015560c0808301516004909201805460e0850151610100860151610120909601511515600160581b0260ff60581b19961515600160501b029690961661ffff60501b1964ffffffffff928316650100000000000269ffffffffffffffffffff1990941692909616919091179190911793909316929092179290921790558201513390859085907fe9a02dd9f3ceed2bd34b0ad478d1d34c14a5190601efceed4e0b26ef13954550906001811115610a9b57610a9b610f2a565b60e087015160a08801516040805160ff9094168452602084019290925263ffffffff169082015260600160405180910390a45050919050565b5f8181526003602052604090206004810154600160581b900460ff16610b0d5760405163022af77760e11b815260040160405180910390fd5b6004810154600160501b900460ff1615610b3a5760405163b8e1234f60e01b815260040160405180910390fd5b5f610b488260010154610c00565b905080602001516001600160a01b0316336001600160a01b031614610b805760405163729139d960e11b815260040160405180910390fd5b600482018054600160501b6affffffffffff000000000019909116650100000000004264ffffffffff160217179055600182015460028301546040516001600160a01b03909116815233919085907f3c2c0bc2ac2249ed5c8e4d05ed0ed77c5b2d050faf9dde1a971ebda3ca6aed0e9060200160405180910390a4505050565b610c08610e0b565b5f8281526001602081815260409283902083516101408101855281546001600160a01b0390811682528285015481169382019390935260028201549092169382019390935260038301546060820152600483015463ffffffff808216608084015264010000000082041660a083015290929160c0840191600160401b900460ff1690811115610c9957610c99610f2a565b6001811115610caa57610caa610f2a565b81526005820154602082015260069091015460ff80821615156040840152610100909104161515606090910152610120810151909150610cfd576040516353dadde160e11b815260040160405180910390fd5b919050565b6040516001600160a01b0384811660248301528381166044830152606482018390525f91829187169060840160408051601f198184030181529181526020820180516001600160e01b03166323b872dd60e01b17905251610d639190611258565b5f604051808303815f865af19150503d805f8114610d9c576040519150601f19603f3d011682016040523d82523d5f602084013e610da1565b606091505b509150915081610dc4576040516312171d8360e31b815260040160405180910390fd5b5f8151118015610de5575080806020019051810190610de39190611284565b155b15610e03576040516312171d8360e31b815260040160405180910390fd5b505050505050565b60408051610140810182525f80825260208201819052918101829052606081018290526080810182905260a081018290529060c082019081525f602082018190526040820181905260609091015290565b80356001600160a01b0381168114610cfd575f80fd5b5f8060408385031215610e83575f80fd5b610e8c83610e5c565b946020939093013593505050565b5f805f8060608587031215610ead575f80fd5b8435935060208501359250604085013567ffffffffffffffff80821115610ed2575f80fd5b818701915087601f830112610ee5575f80fd5b813581811115610ef3575f80fd5b886020828501011115610f04575f80fd5b95989497505060200194505050565b5f60208284031215610f23575f80fd5b5035919050565b634e487b7160e01b5f52602160045260245ffd5b60028110610f5a57634e487b7160e01b5f52602160045260245ffd5b9052565b5f6101408201905082518252602083015160208301526040830151610f8e60408401826001600160a01b03169052565b506060830151610fa6606084018263ffffffff169052565b506080830151610fb96080840182610f3e565b5060a083015160a083015260c0830151610fdc60c084018264ffffffffff169052565b5060e0830151610ff560e084018264ffffffffff169052565b5061010083810151801515848301525b5050610120928301511515919092015290565b803563ffffffff81168114610cfd575f80fd5b8015158114611038575f80fd5b50565b5f805f805f805f805f806101408b8d031215611055575f80fd5b8a35995061106560208c01610e5c565b985061107360408c01610e5c565b975061108160608c01610e5c565b965060808b0135955061109660a08c01611018565b94506110a460c08c01611018565b935060e08b013560ff811681146110b9575f80fd5b92506101008b013591506101208b01356110d28161102b565b809150509295989b9194979a5092959850565b81516001600160a01b031681526101408101602083015161111160208401826001600160a01b03169052565b50604083015161112c60408401826001600160a01b03169052565b5060608301516060830152608083015161114e608084018263ffffffff169052565b5060a083015161116660a084018263ffffffff169052565b5060c083015161117960c0840182610f3e565b5060e083015160e0830152610100808401516110058285018215159052565b634e487b7160e01b5f52601160045260245ffd5b63ffffffff8181168382160190808211156111c9576111c9611198565b5092915050565b86815260a060208201528460a0820152848660c08301375f60c086830181019190915263ffffffff94851660408301529290931660608401526001600160a01b03166080830152601f909201601f1916010192915050565b63ffffffff8281168282160390808211156111c9576111c9611198565b808201808211156104d2576104d2611198565b5f82515f5b81811015611277576020818601810151858301520161125d565b505f920191825250919050565b5f60208284031215611294575f80fd5b815161129f8161102b565b939250505056fea26469706673582212208129f53104281c5036a310506062b3bb08287afaf487648c4c2e3c2f5723902164736f6c63430008180033","opcodes":"PUSH1 0xA0 PUSH1 0x40 MSTORE PUSH1 0x1 PUSH0 SSTORE CALLVALUE DUP1 ISZERO PUSH2 0x13 JUMPI PUSH0 DUP1 REVERT JUMPDEST POP CALLER PUSH1 0x80 MSTORE PUSH1 0x80 MLOAD PUSH2 0x12DC PUSH2 0x37 PUSH0 CODECOPY PUSH0 DUP2 DUP2 PUSH2 0x124 ADD MSTORE PUSH2 0x4E3 ADD MSTORE PUSH2 0x12DC PUSH0 RETURN INVALID PUSH1 0x80 PUSH1 0x40 MSTORE CALLVALUE DUP1 ISZERO PUSH2 0xF JUMPI PUSH0 DUP1 REVERT JUMPDEST POP PUSH1 0x4 CALLDATASIZE LT PUSH2 0x90 JUMPI PUSH0 CALLDATALOAD PUSH1 0xE0 SHR DUP1 PUSH4 0xA0021CF1 GT PUSH2 0x63 JUMPI DUP1 PUSH4 0xA0021CF1 EQ PUSH2 0x15E JUMPI DUP1 PUSH4 0xC2A38801 EQ PUSH2 0x174 JUMPI DUP1 PUSH4 0xF368E15C EQ PUSH2 0x187 JUMPI DUP1 PUSH4 0xF5414023 EQ PUSH2 0x1A7 JUMPI DUP1 PUSH4 0xF940B313 EQ PUSH2 0x1BA JUMPI PUSH0 DUP1 REVERT JUMPDEST DUP1 PUSH4 0x31FB697C EQ PUSH2 0x94 JUMPI DUP1 PUSH4 0x33C945CC EQ PUSH2 0xEA JUMPI DUP1 PUSH4 0x5AEF2447 EQ PUSH2 0xFF JUMPI DUP1 PUSH4 0x8DA5CB5B EQ PUSH2 0x11F JUMPI JUMPDEST PUSH0 DUP1 REVERT JUMPDEST PUSH2 0xA7 PUSH2 0xA2 CALLDATASIZE PUSH1 0x4 PUSH2 0xE72 JUMP JUMPDEST PUSH2 0x1CD JUMP JUMPDEST PUSH1 0x40 DUP1 MLOAD PUSH4 0xFFFFFFFF SWAP8 DUP9 AND DUP2 MSTORE SWAP6 DUP8 AND PUSH1 0x20 DUP8 ADD MSTORE SWAP4 SWAP1 SWAP6 AND SWAP3 DUP5 ADD SWAP3 SWAP1 SWAP3 MSTORE PUSH1 0xFF AND PUSH1 0x60 DUP4 ADD MSTORE PUSH1 0x80 DUP3 ADD MSTORE SWAP1 ISZERO ISZERO PUSH1 0xA0 DUP3 ADD MSTORE PUSH1 0xC0 ADD JUMPDEST PUSH1 0x40 MLOAD DUP1 SWAP2 SUB SWAP1 RETURN JUMPDEST PUSH2 0xFD PUSH2 0xF8 CALLDATASIZE PUSH1 0x4 PUSH2 0xE9A JUMP JUMPDEST PUSH2 0x25C JUMP JUMPDEST STOP JUMPDEST PUSH2 0x112 PUSH2 0x10D CALLDATASIZE PUSH1 0x4 PUSH2 0xF13 JUMP JUMPDEST PUSH2 0x384 JUMP JUMPDEST PUSH1 0x40 MLOAD PUSH2 0xE1 SWAP2 SWAP1 PUSH2 0xF5E JUMP JUMPDEST PUSH2 0x146 PUSH32 0x0 DUP2 JUMP JUMPDEST PUSH1 0x40 MLOAD PUSH1 0x1 PUSH1 0x1 PUSH1 0xA0 SHL SUB SWAP1 SWAP2 AND DUP2 MSTORE PUSH1 0x20 ADD PUSH2 0xE1 JUMP JUMPDEST PUSH2 0x166 PUSH0 SLOAD DUP2 JUMP JUMPDEST PUSH1 0x40 MLOAD SWAP1 DUP2 MSTORE PUSH1 0x20 ADD PUSH2 0xE1 JUMP JUMPDEST PUSH2 0xFD PUSH2 0x182 CALLDATASIZE PUSH1 0x4 PUSH2 0x103B JUMP JUMPDEST PUSH2 0x4D8 JUMP JUMPDEST PUSH2 0x19A PUSH2 0x195 CALLDATASIZE PUSH1 0x4 PUSH2 0xF13 JUMP JUMPDEST PUSH2 0x7EE JUMP JUMPDEST PUSH1 0x40 MLOAD PUSH2 0xE1 SWAP2 SWAP1 PUSH2 0x10E5 JUMP JUMPDEST PUSH2 0x166 PUSH2 0x1B5 CALLDATASIZE PUSH1 0x4 PUSH2 0xF13 JUMP JUMPDEST PUSH2 0x7FF JUMP JUMPDEST PUSH2 0xFD PUSH2 0x1C8 CALLDATASIZE PUSH1 0x4 PUSH2 0xF13 JUMP JUMPDEST PUSH2 0xAD4 JUMP JUMPDEST PUSH0 DUP1 PUSH0 DUP1 PUSH0 DUP1 PUSH0 PUSH2 0x1DD DUP9 PUSH2 0xC00 JUMP JUMPDEST PUSH1 0x1 PUSH1 0x1 PUSH1 0xA0 SHL SUB DUP11 AND PUSH0 SWAP1 DUP2 MSTORE PUSH1 0x2 PUSH1 0x20 SWAP1 DUP2 MSTORE PUSH1 0x40 DUP1 DUP4 KECCAK256 DUP13 DUP5 MSTORE SWAP1 SWAP2 MSTORE SWAP1 KECCAK256 SLOAD PUSH1 0xA0 DUP3 ADD MLOAD PUSH1 0x80 DUP4 ADD MLOAD PUSH1 0xC0 DUP5 ADD MLOAD PUSH4 0xFFFFFFFF SWAP1 SWAP4 AND SWAP11 POP SWAP1 SWAP9 POP SWAP7 POP SWAP1 SWAP2 POP PUSH1 0x1 DUP2 GT ISZERO PUSH2 0x232 JUMPI PUSH2 0x232 PUSH2 0xF2A JUMP JUMPDEST SWAP4 POP DUP1 PUSH1 0xE0 ADD MLOAD SWAP3 POP DUP1 PUSH1 0xA0 ADD MLOAD PUSH4 0xFFFFFFFF AND DUP8 PUSH4 0xFFFFFFFF AND LT ISZERO SWAP2 POP POP SWAP3 SWAP6 POP SWAP3 SWAP6 POP SWAP3 SWAP6 JUMP JUMPDEST PUSH0 PUSH2 0x266 DUP6 PUSH2 0xC00 JUMP JUMPDEST SWAP1 POP DUP1 PUSH2 0x100 ADD MLOAD PUSH2 0x28B JUMPI PUSH1 0x40 MLOAD PUSH4 0x51C16F19 PUSH1 0xE0 SHL DUP2 MSTORE PUSH1 0x4 ADD PUSH1 0x40 MLOAD DUP1 SWAP2 SUB SWAP1 REVERT JUMPDEST DUP1 PUSH1 0x60 ADD MLOAD DUP5 LT ISZERO PUSH2 0x2B0 JUMPI PUSH1 0x40 MLOAD PUSH4 0x2FCD1A0F PUSH1 0xE0 SHL DUP2 MSTORE PUSH1 0x4 ADD PUSH1 0x40 MLOAD DUP1 SWAP2 SUB SWAP1 REVERT JUMPDEST PUSH2 0x2C3 DUP2 PUSH1 0x40 ADD MLOAD CALLER DUP4 PUSH0 ADD MLOAD DUP8 PUSH2 0xD02 JUMP JUMPDEST PUSH1 0x80 DUP2 ADD MLOAD CALLER PUSH0 SWAP1 DUP2 MSTORE PUSH1 0x2 PUSH1 0x20 SWAP1 DUP2 MSTORE PUSH1 0x40 DUP1 DUP4 KECCAK256 DUP10 DUP5 MSTORE SWAP1 SWAP2 MSTORE DUP2 KECCAK256 SLOAD SWAP1 SWAP2 PUSH2 0x2F3 SWAP2 PUSH4 0xFFFFFFFF AND PUSH2 0x11AC JUMP JUMPDEST CALLER PUSH0 DUP2 DUP2 MSTORE PUSH1 0x2 PUSH1 0x20 SWAP1 DUP2 MSTORE PUSH1 0x40 DUP1 DUP4 KECCAK256 DUP12 DUP5 MSTORE SWAP1 SWAP2 MSTORE SWAP1 DUP2 SWAP1 KECCAK256 DUP1 SLOAD PUSH4 0xFFFFFFFF NOT AND PUSH4 0xFFFFFFFF DUP6 AND OR SWAP1 SSTORE DUP5 DUP2 ADD MLOAD PUSH1 0x80 DUP7 ADD MLOAD DUP7 MLOAD SWAP3 MLOAD SWAP5 SWAP6 POP PUSH1 0x1 PUSH1 0x1 PUSH1 0xA0 SHL SUB SWAP1 SWAP2 AND SWAP4 DUP11 SWAP3 PUSH32 0x22785BCB2A49ACC94BA1F1506E61BDF297A86638017991FD186024C1493EFD93 SWAP3 PUSH2 0x374 SWAP3 DUP13 SWAP3 DUP13 SWAP3 DUP13 SWAP3 SWAP1 SWAP2 DUP12 SWAP2 PUSH2 0x11D0 JUMP JUMPDEST PUSH1 0x40 MLOAD DUP1 SWAP2 SUB SWAP1 LOG4 POP POP POP POP POP POP JUMP JUMPDEST PUSH1 0x40 DUP1 MLOAD PUSH2 0x140 DUP2 ADD DUP3 MSTORE PUSH0 DUP1 DUP3 MSTORE PUSH1 0x20 DUP3 ADD DUP2 SWAP1 MSTORE SWAP2 DUP2 ADD DUP3 SWAP1 MSTORE PUSH1 0x60 DUP2 ADD DUP3 SWAP1 MSTORE PUSH1 0x80 DUP2 ADD DUP3 SWAP1 MSTORE PUSH1 0xA0 DUP2 ADD DUP3 SWAP1 MSTORE PUSH1 0xC0 DUP2 ADD DUP3 SWAP1 MSTORE PUSH1 0xE0 DUP2 ADD DUP3 SWAP1 MSTORE PUSH2 0x100 DUP2 ADD DUP3 SWAP1 MSTORE PUSH2 0x120 DUP2 ADD SWAP2 SWAP1 SWAP2 MSTORE PUSH0 DUP3 DUP2 MSTORE PUSH1 0x3 PUSH1 0x20 SWAP1 DUP2 MSTORE PUSH1 0x40 DUP1 DUP4 KECCAK256 DUP2 MLOAD PUSH2 0x140 DUP2 ADD DUP4 MSTORE DUP2 SLOAD DUP2 MSTORE PUSH1 0x1 DUP1 DUP4 ADD SLOAD SWAP5 DUP3 ADD SWAP5 SWAP1 SWAP5 MSTORE PUSH1 0x2 DUP3 ADD SLOAD PUSH1 0x1 PUSH1 0x1 PUSH1 0xA0 SHL SUB DUP2 AND SWAP4 DUP3 ADD SWAP4 SWAP1 SWAP4 MSTORE PUSH1 0x1 PUSH1 0xA0 SHL DUP4 DIV PUSH4 0xFFFFFFFF AND PUSH1 0x60 DUP3 ADD MSTORE SWAP3 SWAP1 SWAP2 PUSH1 0x80 DUP5 ADD SWAP2 PUSH1 0x1 PUSH1 0xC0 SHL SWAP1 SWAP2 DIV PUSH1 0xFF AND SWAP1 DUP2 GT ISZERO PUSH2 0x449 JUMPI PUSH2 0x449 PUSH2 0xF2A JUMP JUMPDEST PUSH1 0x1 DUP2 GT ISZERO PUSH2 0x45A JUMPI PUSH2 0x45A PUSH2 0xF2A JUMP JUMPDEST DUP2 MSTORE PUSH1 0x3 DUP3 ADD SLOAD PUSH1 0x20 DUP3 ADD MSTORE PUSH1 0x4 SWAP1 SWAP2 ADD SLOAD PUSH5 0xFFFFFFFFFF DUP1 DUP3 AND PUSH1 0x40 DUP5 ADD MSTORE PUSH6 0x10000000000 DUP3 DIV AND PUSH1 0x60 DUP4 ADD MSTORE PUSH1 0xFF PUSH1 0x1 PUSH1 0x50 SHL DUP3 DIV DUP2 AND ISZERO ISZERO PUSH1 0x80 DUP5 ADD MSTORE PUSH1 0x1 PUSH1 0x58 SHL SWAP1 SWAP2 DIV AND ISZERO ISZERO PUSH1 0xA0 SWAP1 SWAP2 ADD MSTORE PUSH2 0x120 DUP2 ADD MLOAD SWAP1 SWAP2 POP PUSH2 0x4D2 JUMPI PUSH1 0x40 MLOAD PUSH4 0x22AF777 PUSH1 0xE1 SHL DUP2 MSTORE PUSH1 0x4 ADD PUSH1 0x40 MLOAD DUP1 SWAP2 SUB SWAP1 REVERT JUMPDEST SWAP3 SWAP2 POP POP JUMP JUMPDEST CALLER PUSH1 0x1 PUSH1 0x1 PUSH1 0xA0 SHL SUB PUSH32 0x0 AND EQ PUSH2 0x521 JUMPI PUSH1 0x40 MLOAD PUSH4 0x30CD7471 PUSH1 0xE0 SHL DUP2 MSTORE PUSH1 0x4 ADD PUSH1 0x40 MLOAD DUP1 SWAP2 SUB SWAP1 REVERT JUMPDEST DUP10 PUSH2 0x53E JUMPI PUSH1 0x40 MLOAD PUSH3 0x4B761 PUSH1 0xE9 SHL DUP2 MSTORE PUSH1 0x4 ADD PUSH1 0x40 MLOAD DUP1 SWAP2 SUB SWAP1 REVERT JUMPDEST PUSH1 0x1 PUSH1 0x1 PUSH1 0xA0 SHL SUB DUP10 AND ISZERO DUP1 PUSH2 0x55B JUMPI POP PUSH1 0x1 PUSH1 0x1 PUSH1 0xA0 SHL SUB DUP9 AND ISZERO JUMPDEST DUP1 PUSH2 0x56D JUMPI POP PUSH1 0x1 PUSH1 0x1 PUSH1 0xA0 SHL SUB DUP8 AND ISZERO JUMPDEST DUP1 PUSH2 0x57C JUMPI POP PUSH4 0xFFFFFFFF DUP6 AND ISZERO JUMPDEST DUP1 PUSH2 0x58B JUMPI POP PUSH4 0xFFFFFFFF DUP5 AND ISZERO JUMPDEST DUP1 PUSH2 0x594 JUMPI POP DUP2 ISZERO JUMPDEST DUP1 PUSH2 0x5A2 JUMPI POP PUSH1 0x1 PUSH1 0xFF DUP5 AND GT JUMPDEST ISZERO PUSH2 0x5C0 JUMPI PUSH1 0x40 MLOAD PUSH4 0xCF354CCD PUSH1 0xE0 SHL DUP2 MSTORE PUSH1 0x4 ADD PUSH1 0x40 MLOAD DUP1 SWAP2 SUB SWAP1 REVERT JUMPDEST PUSH1 0x40 MLOAD DUP1 PUSH2 0x140 ADD PUSH1 0x40 MSTORE DUP1 DUP11 PUSH1 0x1 PUSH1 0x1 PUSH1 0xA0 SHL SUB AND DUP2 MSTORE PUSH1 0x20 ADD DUP10 PUSH1 0x1 PUSH1 0x1 PUSH1 0xA0 SHL SUB AND DUP2 MSTORE PUSH1 0x20 ADD DUP9 PUSH1 0x1 PUSH1 0x1 PUSH1 0xA0 SHL SUB AND DUP2 MSTORE PUSH1 0x20 ADD DUP8 DUP2 MSTORE PUSH1 0x20 ADD DUP7 PUSH4 0xFFFFFFFF AND DUP2 MSTORE PUSH1 0x20 ADD DUP6 PUSH4 0xFFFFFFFF AND DUP2 MSTORE PUSH1 0x20 ADD DUP5 PUSH1 0xFF AND PUSH1 0x1 DUP2 GT ISZERO PUSH2 0x62C JUMPI PUSH2 0x62C PUSH2 0xF2A JUMP JUMPDEST PUSH1 0x1 DUP2 GT ISZERO PUSH2 0x63D JUMPI PUSH2 0x63D PUSH2 0xF2A JUMP JUMPDEST DUP2 MSTORE PUSH1 0x20 DUP1 DUP3 ADD DUP6 SWAP1 MSTORE DUP4 ISZERO ISZERO PUSH1 0x40 DUP1 DUP5 ADD SWAP2 SWAP1 SWAP2 MSTORE PUSH1 0x1 PUSH1 0x60 SWAP4 DUP5 ADD DUP2 SWAP1 MSTORE PUSH0 DUP16 DUP2 MSTORE DUP2 DUP5 MSTORE DUP3 SWAP1 KECCAK256 DUP6 MLOAD DUP2 SLOAD PUSH1 0x1 PUSH1 0x1 PUSH1 0xA0 SHL SUB SWAP2 DUP3 AND PUSH1 0x1 PUSH1 0x1 PUSH1 0xA0 SHL SUB NOT SWAP2 DUP3 AND OR DUP4 SSTORE SWAP5 DUP8 ADD MLOAD DUP3 DUP5 ADD DUP1 SLOAD SWAP2 DUP4 AND SWAP2 DUP8 AND SWAP2 SWAP1 SWAP2 OR SWAP1 SSTORE SWAP3 DUP7 ADD MLOAD PUSH1 0x2 DUP3 ADD DUP1 SLOAD SWAP2 SWAP1 SWAP5 AND SWAP5 AND SWAP4 SWAP1 SWAP4 OR SWAP1 SWAP2 SSTORE SWAP2 DUP4 ADD MLOAD PUSH1 0x3 DUP3 ADD SSTORE PUSH1 0x80 DUP4 ADD MLOAD PUSH1 0x4 DUP3 ADD DUP1 SLOAD PUSH1 0xA0 DUP7 ADD MLOAD PUSH4 0xFFFFFFFF SWAP1 DUP2 AND PUSH5 0x100000000 MUL PUSH8 0xFFFFFFFFFFFFFFFF NOT SWAP1 SWAP3 AND SWAP4 AND SWAP3 SWAP1 SWAP3 OR SWAP2 SWAP1 SWAP2 OR DUP1 DUP3 SSTORE PUSH1 0xC0 DUP6 ADD MLOAD SWAP3 SWAP4 PUSH9 0xFF0000000000000000 NOT SWAP1 SWAP2 AND SWAP1 PUSH1 0x1 PUSH1 0x40 SHL SWAP1 DUP5 SWAP1 DUP2 GT ISZERO PUSH2 0x720 JUMPI PUSH2 0x720 PUSH2 0xF2A JUMP JUMPDEST MUL OR SWAP1 SSTORE POP PUSH1 0xE0 DUP3 DUP2 ADD MLOAD PUSH1 0x5 DUP4 ADD SSTORE PUSH2 0x100 DUP1 DUP5 ADD MLOAD PUSH1 0x6 SWAP1 SWAP4 ADD DUP1 SLOAD PUSH2 0x120 SWAP6 DUP7 ADD MLOAD ISZERO ISZERO DUP4 MUL PUSH2 0xFF00 NOT SWAP6 ISZERO ISZERO SWAP6 SWAP1 SWAP6 AND PUSH2 0xFFFF NOT SWAP1 SWAP2 AND OR SWAP4 SWAP1 SWAP4 OR SWAP1 SWAP3 SSTORE PUSH1 0x40 DUP1 MLOAD PUSH1 0x1 PUSH1 0x1 PUSH1 0xA0 SHL SUB DUP15 DUP2 AND DUP3 MSTORE DUP14 DUP2 AND PUSH1 0x20 DUP4 ADD MSTORE DUP13 AND DUP2 DUP4 ADD MSTORE PUSH1 0x60 DUP2 ADD DUP12 SWAP1 MSTORE PUSH4 0xFFFFFFFF DUP11 DUP2 AND PUSH1 0x80 DUP4 ADD MSTORE DUP10 AND PUSH1 0xA0 DUP3 ADD MSTORE PUSH1 0xFF DUP9 AND PUSH1 0xC0 DUP3 ADD MSTORE SWAP2 DUP3 ADD DUP7 SWAP1 MSTORE DUP5 ISZERO ISZERO SWAP3 DUP3 ADD SWAP3 SWAP1 SWAP3 MSTORE SWAP1 MLOAD DUP13 SWAP3 PUSH32 0x8E4363FC554392BF632BD4EA51C03FA520B64FDFB8F88A299D40933240BF2297 SWAP3 DUP3 SWAP1 SUB ADD SWAP1 LOG2 POP POP POP POP POP POP POP POP POP POP JUMP JUMPDEST PUSH2 0x7F6 PUSH2 0xE0B JUMP JUMPDEST PUSH2 0x4D2 DUP3 PUSH2 0xC00 JUMP JUMPDEST PUSH0 DUP1 PUSH2 0x80A DUP4 PUSH2 0xC00 JUMP JUMPDEST SWAP1 POP DUP1 PUSH2 0x100 ADD MLOAD PUSH2 0x82F JUMPI PUSH1 0x40 MLOAD PUSH4 0x51C16F19 PUSH1 0xE0 SHL DUP2 MSTORE PUSH1 0x4 ADD PUSH1 0x40 MLOAD DUP1 SWAP2 SUB SWAP1 REVERT JUMPDEST CALLER PUSH0 SWAP1 DUP2 MSTORE PUSH1 0x2 PUSH1 0x20 SWAP1 DUP2 MSTORE PUSH1 0x40 DUP1 DUP4 KECCAK256 DUP7 DUP5 MSTORE SWAP1 SWAP2 MSTORE SWAP1 KECCAK256 SLOAD PUSH1 0xA0 DUP3 ADD MLOAD PUSH4 0xFFFFFFFF SWAP2 DUP3 AND SWAP2 AND DUP2 LT ISZERO PUSH2 0x878 JUMPI PUSH1 0x40 MLOAD PUSH4 0xC464FC9 PUSH1 0xE4 SHL DUP2 MSTORE PUSH1 0x4 ADD PUSH1 0x40 MLOAD DUP1 SWAP2 SUB SWAP1 REVERT JUMPDEST PUSH1 0xA0 DUP3 ADD MLOAD PUSH2 0x887 SWAP1 DUP3 PUSH2 0x1228 JUMP JUMPDEST CALLER PUSH0 SWAP1 DUP2 MSTORE PUSH1 0x2 PUSH1 0x20 SWAP1 DUP2 MSTORE PUSH1 0x40 DUP1 DUP4 KECCAK256 DUP9 DUP5 MSTORE SWAP1 SWAP2 MSTORE DUP2 KECCAK256 DUP1 SLOAD PUSH4 0xFFFFFFFF NOT AND PUSH4 0xFFFFFFFF SWAP4 SWAP1 SWAP4 AND SWAP3 SWAP1 SWAP3 OR SWAP1 SWAP2 SSTORE DUP1 SLOAD SWAP4 POP PUSH1 0x1 SWAP1 DUP1 PUSH2 0x8CB DUP4 DUP8 PUSH2 0x1245 JUMP JUMPDEST SWAP3 POP POP DUP2 SWAP1 SSTORE POP PUSH1 0x40 MLOAD DUP1 PUSH2 0x140 ADD PUSH1 0x40 MSTORE DUP1 DUP5 DUP2 MSTORE PUSH1 0x20 ADD DUP6 DUP2 MSTORE PUSH1 0x20 ADD CALLER PUSH1 0x1 PUSH1 0x1 PUSH1 0xA0 SHL SUB AND DUP2 MSTORE PUSH1 0x20 ADD DUP4 PUSH1 0xA0 ADD MLOAD PUSH4 0xFFFFFFFF AND DUP2 MSTORE PUSH1 0x20 ADD DUP4 PUSH1 0xC0 ADD MLOAD PUSH1 0x1 DUP2 GT ISZERO PUSH2 0x91F JUMPI PUSH2 0x91F PUSH2 0xF2A JUMP JUMPDEST DUP2 MSTORE PUSH1 0xE0 DUP5 ADD MLOAD PUSH1 0x20 DUP1 DUP4 ADD SWAP2 SWAP1 SWAP2 MSTORE PUSH5 0xFFFFFFFFFF TIMESTAMP AND PUSH1 0x40 DUP1 DUP5 ADD SWAP2 SWAP1 SWAP2 MSTORE PUSH0 PUSH1 0x60 DUP1 DUP6 ADD DUP3 SWAP1 MSTORE PUSH1 0x80 DUP1 DUP7 ADD DUP4 SWAP1 MSTORE PUSH1 0x1 PUSH1 0xA0 SWAP1 SWAP7 ADD DUP7 SWAP1 MSTORE DUP10 DUP4 MSTORE PUSH1 0x3 DUP6 MSTORE SWAP2 DUP4 SWAP1 KECCAK256 DUP7 MLOAD DUP2 SSTORE SWAP4 DUP7 ADD MLOAD DUP5 DUP7 ADD SSTORE SWAP2 DUP6 ADD MLOAD PUSH1 0x2 DUP5 ADD DUP1 SLOAD SWAP4 DUP8 ADD MLOAD PUSH4 0xFFFFFFFF AND PUSH1 0x1 PUSH1 0xA0 SHL MUL PUSH1 0x1 PUSH1 0x1 PUSH1 0xC0 SHL SUB NOT SWAP1 SWAP5 AND PUSH1 0x1 PUSH1 0x1 PUSH1 0xA0 SHL SUB SWAP1 SWAP3 AND SWAP2 SWAP1 SWAP2 OR SWAP3 SWAP1 SWAP3 OR DUP1 DUP4 SSTORE SWAP1 DUP6 ADD MLOAD SWAP3 SWAP4 PUSH1 0xFF PUSH1 0xC0 SHL NOT SWAP1 SWAP2 AND SWAP1 PUSH1 0x1 PUSH1 0xC0 SHL SWAP1 DUP5 SWAP1 DUP2 GT ISZERO PUSH2 0x9D5 JUMPI PUSH2 0x9D5 PUSH2 0xF2A JUMP JUMPDEST MUL OR SWAP1 SSTORE POP PUSH1 0xA0 DUP3 ADD MLOAD PUSH1 0x3 DUP3 ADD SSTORE PUSH1 0xC0 DUP1 DUP4 ADD MLOAD PUSH1 0x4 SWAP1 SWAP3 ADD DUP1 SLOAD PUSH1 0xE0 DUP6 ADD MLOAD PUSH2 0x100 DUP7 ADD MLOAD PUSH2 0x120 SWAP1 SWAP7 ADD MLOAD ISZERO ISZERO PUSH1 0x1 PUSH1 0x58 SHL MUL PUSH1 0xFF PUSH1 0x58 SHL NOT SWAP7 ISZERO ISZERO PUSH1 0x1 PUSH1 0x50 SHL MUL SWAP7 SWAP1 SWAP7 AND PUSH2 0xFFFF PUSH1 0x50 SHL NOT PUSH5 0xFFFFFFFFFF SWAP3 DUP4 AND PUSH6 0x10000000000 MUL PUSH10 0xFFFFFFFFFFFFFFFFFFFF NOT SWAP1 SWAP5 AND SWAP3 SWAP1 SWAP7 AND SWAP2 SWAP1 SWAP2 OR SWAP2 SWAP1 SWAP2 OR SWAP4 SWAP1 SWAP4 AND SWAP3 SWAP1 SWAP3 OR SWAP3 SWAP1 SWAP3 OR SWAP1 SSTORE DUP3 ADD MLOAD CALLER SWAP1 DUP6 SWAP1 DUP6 SWAP1 PUSH32 0xE9A02DD9F3CEED2BD34B0AD478D1D34C14A5190601EFCEED4E0B26EF13954550 SWAP1 PUSH1 0x1 DUP2 GT ISZERO PUSH2 0xA9B JUMPI PUSH2 0xA9B PUSH2 0xF2A JUMP JUMPDEST PUSH1 0xE0 DUP8 ADD MLOAD PUSH1 0xA0 DUP9 ADD MLOAD PUSH1 0x40 DUP1 MLOAD PUSH1 0xFF SWAP1 SWAP5 AND DUP5 MSTORE PUSH1 0x20 DUP5 ADD SWAP3 SWAP1 SWAP3 MSTORE PUSH4 0xFFFFFFFF AND SWAP1 DUP3 ADD MSTORE PUSH1 0x60 ADD PUSH1 0x40 MLOAD DUP1 SWAP2 SUB SWAP1 LOG4 POP POP SWAP2 SWAP1 POP JUMP JUMPDEST PUSH0 DUP2 DUP2 MSTORE PUSH1 0x3 PUSH1 0x20 MSTORE PUSH1 0x40 SWAP1 KECCAK256 PUSH1 0x4 DUP2 ADD SLOAD PUSH1 0x1 PUSH1 0x58 SHL SWAP1 DIV PUSH1 0xFF AND PUSH2 0xB0D JUMPI PUSH1 0x40 MLOAD PUSH4 0x22AF777 PUSH1 0xE1 SHL DUP2 MSTORE PUSH1 0x4 ADD PUSH1 0x40 MLOAD DUP1 SWAP2 SUB SWAP1 REVERT JUMPDEST PUSH1 0x4 DUP2 ADD SLOAD PUSH1 0x1 PUSH1 0x50 SHL SWAP1 DIV PUSH1 0xFF AND ISZERO PUSH2 0xB3A JUMPI PUSH1 0x40 MLOAD PUSH4 0xB8E1234F PUSH1 0xE0 SHL DUP2 MSTORE PUSH1 0x4 ADD PUSH1 0x40 MLOAD DUP1 SWAP2 SUB SWAP1 REVERT JUMPDEST PUSH0 PUSH2 0xB48 DUP3 PUSH1 0x1 ADD SLOAD PUSH2 0xC00 JUMP JUMPDEST SWAP1 POP DUP1 PUSH1 0x20 ADD MLOAD PUSH1 0x1 PUSH1 0x1 PUSH1 0xA0 SHL SUB AND CALLER PUSH1 0x1 PUSH1 0x1 PUSH1 0xA0 SHL SUB AND EQ PUSH2 0xB80 JUMPI PUSH1 0x40 MLOAD PUSH4 0x729139D9 PUSH1 0xE1 SHL DUP2 MSTORE PUSH1 0x4 ADD PUSH1 0x40 MLOAD DUP1 SWAP2 SUB SWAP1 REVERT JUMPDEST PUSH1 0x4 DUP3 ADD DUP1 SLOAD PUSH1 0x1 PUSH1 0x50 SHL PUSH11 0xFFFFFFFFFFFF0000000000 NOT SWAP1 SWAP2 AND PUSH6 0x10000000000 TIMESTAMP PUSH5 0xFFFFFFFFFF AND MUL OR OR SWAP1 SSTORE PUSH1 0x1 DUP3 ADD SLOAD PUSH1 0x2 DUP4 ADD SLOAD PUSH1 0x40 MLOAD PUSH1 0x1 PUSH1 0x1 PUSH1 0xA0 SHL SUB SWAP1 SWAP2 AND DUP2 MSTORE CALLER SWAP2 SWAP1 DUP6 SWAP1 PUSH32 0x3C2C0BC2AC2249ED5C8E4D05ED0ED77C5B2D050FAF9DDE1A971EBDA3CA6AED0E SWAP1 PUSH1 0x20 ADD PUSH1 0x40 MLOAD DUP1 SWAP2 SUB SWAP1 LOG4 POP POP POP JUMP JUMPDEST PUSH2 0xC08 PUSH2 0xE0B JUMP JUMPDEST PUSH0 DUP3 DUP2 MSTORE PUSH1 0x1 PUSH1 0x20 DUP2 DUP2 MSTORE PUSH1 0x40 SWAP3 DUP4 SWAP1 KECCAK256 DUP4 MLOAD PUSH2 0x140 DUP2 ADD DUP6 MSTORE DUP2 SLOAD PUSH1 0x1 PUSH1 0x1 PUSH1 0xA0 SHL SUB SWAP1 DUP2 AND DUP3 MSTORE DUP3 DUP6 ADD SLOAD DUP2 AND SWAP4 DUP3 ADD SWAP4 SWAP1 SWAP4 MSTORE PUSH1 0x2 DUP3 ADD SLOAD SWAP1 SWAP3 AND SWAP4 DUP3 ADD SWAP4 SWAP1 SWAP4 MSTORE PUSH1 0x3 DUP4 ADD SLOAD PUSH1 0x60 DUP3 ADD MSTORE PUSH1 0x4 DUP4 ADD SLOAD PUSH4 0xFFFFFFFF DUP1 DUP3 AND PUSH1 0x80 DUP5 ADD MSTORE PUSH5 0x100000000 DUP3 DIV AND PUSH1 0xA0 DUP4 ADD MSTORE SWAP1 SWAP3 SWAP2 PUSH1 0xC0 DUP5 ADD SWAP2 PUSH1 0x1 PUSH1 0x40 SHL SWAP1 DIV PUSH1 0xFF AND SWAP1 DUP2 GT ISZERO PUSH2 0xC99 JUMPI PUSH2 0xC99 PUSH2 0xF2A JUMP JUMPDEST PUSH1 0x1 DUP2 GT ISZERO PUSH2 0xCAA JUMPI PUSH2 0xCAA PUSH2 0xF2A JUMP JUMPDEST DUP2 MSTORE PUSH1 0x5 DUP3 ADD SLOAD PUSH1 0x20 DUP3 ADD MSTORE PUSH1 0x6 SWAP1 SWAP2 ADD SLOAD PUSH1 0xFF DUP1 DUP3 AND ISZERO ISZERO PUSH1 0x40 DUP5 ADD MSTORE PUSH2 0x100 SWAP1 SWAP2 DIV AND ISZERO ISZERO PUSH1 0x60 SWAP1 SWAP2 ADD MSTORE PUSH2 0x120 DUP2 ADD MLOAD SWAP1 SWAP2 POP PUSH2 0xCFD JUMPI PUSH1 0x40 MLOAD PUSH4 0x53DADDE1 PUSH1 0xE1 SHL DUP2 MSTORE PUSH1 0x4 ADD PUSH1 0x40 MLOAD DUP1 SWAP2 SUB SWAP1 REVERT JUMPDEST SWAP2 SWAP1 POP JUMP JUMPDEST PUSH1 0x40 MLOAD PUSH1 0x1 PUSH1 0x1 PUSH1 0xA0 SHL SUB DUP5 DUP2 AND PUSH1 0x24 DUP4 ADD MSTORE DUP4 DUP2 AND PUSH1 0x44 DUP4 ADD MSTORE PUSH1 0x64 DUP3 ADD DUP4 SWAP1 MSTORE PUSH0 SWAP2 DUP3 SWAP2 DUP8 AND SWAP1 PUSH1 0x84 ADD PUSH1 0x40 DUP1 MLOAD PUSH1 0x1F NOT DUP2 DUP5 SUB ADD DUP2 MSTORE SWAP2 DUP2 MSTORE PUSH1 0x20 DUP3 ADD DUP1 MLOAD PUSH1 0x1 PUSH1 0x1 PUSH1 0xE0 SHL SUB AND PUSH4 0x23B872DD PUSH1 0xE0 SHL OR SWAP1 MSTORE MLOAD PUSH2 0xD63 SWAP2 SWAP1 PUSH2 0x1258 JUMP JUMPDEST PUSH0 PUSH1 0x40 MLOAD DUP1 DUP4 SUB DUP2 PUSH0 DUP7 GAS CALL SWAP2 POP POP RETURNDATASIZE DUP1 PUSH0 DUP2 EQ PUSH2 0xD9C JUMPI PUSH1 0x40 MLOAD SWAP2 POP PUSH1 0x1F NOT PUSH1 0x3F RETURNDATASIZE ADD AND DUP3 ADD PUSH1 0x40 MSTORE RETURNDATASIZE DUP3 MSTORE RETURNDATASIZE PUSH0 PUSH1 0x20 DUP5 ADD RETURNDATACOPY PUSH2 0xDA1 JUMP JUMPDEST PUSH1 0x60 SWAP2 POP JUMPDEST POP SWAP2 POP SWAP2 POP DUP2 PUSH2 0xDC4 JUMPI PUSH1 0x40 MLOAD PUSH4 0x12171D83 PUSH1 0xE3 SHL DUP2 MSTORE PUSH1 0x4 ADD PUSH1 0x40 MLOAD DUP1 SWAP2 SUB SWAP1 REVERT JUMPDEST PUSH0 DUP2 MLOAD GT DUP1 ISZERO PUSH2 0xDE5 JUMPI POP DUP1 DUP1 PUSH1 0x20 ADD SWAP1 MLOAD DUP2 ADD SWAP1 PUSH2 0xDE3 SWAP2 SWAP1 PUSH2 0x1284 JUMP JUMPDEST ISZERO JUMPDEST ISZERO PUSH2 0xE03 JUMPI PUSH1 0x40 MLOAD PUSH4 0x12171D83 PUSH1 0xE3 SHL DUP2 MSTORE PUSH1 0x4 ADD PUSH1 0x40 MLOAD DUP1 SWAP2 SUB SWAP1 REVERT JUMPDEST POP POP POP POP POP POP JUMP JUMPDEST PUSH1 0x40 DUP1 MLOAD PUSH2 0x140 DUP2 ADD DUP3 MSTORE PUSH0 DUP1 DUP3 MSTORE PUSH1 0x20 DUP3 ADD DUP2 SWAP1 MSTORE SWAP2 DUP2 ADD DUP3 SWAP1 MSTORE PUSH1 0x60 DUP2 ADD DUP3 SWAP1 MSTORE PUSH1 0x80 DUP2 ADD DUP3 SWAP1 MSTORE PUSH1 0xA0 DUP2 ADD DUP3 SWAP1 MSTORE SWAP1 PUSH1 0xC0 DUP3 ADD SWAP1 DUP2 MSTORE PUSH0 PUSH1 0x20 DUP3 ADD DUP2 SWAP1 MSTORE PUSH1 0x40 DUP3 ADD DUP2 SWAP1 MSTORE PUSH1 0x60 SWAP1 SWAP2 ADD MSTORE SWAP1 JUMP JUMPDEST DUP1 CALLDATALOAD PUSH1 0x1 PUSH1 0x1 PUSH1 0xA0 SHL SUB DUP2 AND DUP2 EQ PUSH2 0xCFD JUMPI PUSH0 DUP1 REVERT JUMPDEST PUSH0 DUP1 PUSH1 0x40 DUP4 DUP6 SUB SLT ISZERO PUSH2 0xE83 JUMPI PUSH0 DUP1 REVERT JUMPDEST PUSH2 0xE8C DUP4 PUSH2 0xE5C JUMP JUMPDEST SWAP5 PUSH1 0x20 SWAP4 SWAP1 SWAP4 ADD CALLDATALOAD SWAP4 POP POP POP JUMP JUMPDEST PUSH0 DUP1 PUSH0 DUP1 PUSH1 0x60 DUP6 DUP8 SUB SLT ISZERO PUSH2 0xEAD JUMPI PUSH0 DUP1 REVERT JUMPDEST DUP5 CALLDATALOAD SWAP4 POP PUSH1 0x20 DUP6 ADD CALLDATALOAD SWAP3 POP PUSH1 0x40 DUP6 ADD CALLDATALOAD PUSH8 0xFFFFFFFFFFFFFFFF DUP1 DUP3 GT ISZERO PUSH2 0xED2 JUMPI PUSH0 DUP1 REVERT JUMPDEST DUP2 DUP8 ADD SWAP2 POP DUP8 PUSH1 0x1F DUP4 ADD SLT PUSH2 0xEE5 JUMPI PUSH0 DUP1 REVERT JUMPDEST DUP2 CALLDATALOAD DUP2 DUP2 GT ISZERO PUSH2 0xEF3 JUMPI PUSH0 DUP1 REVERT JUMPDEST DUP9 PUSH1 0x20 DUP3 DUP6 ADD ADD GT ISZERO PUSH2 0xF04 JUMPI PUSH0 DUP1 REVERT JUMPDEST SWAP6 SWAP9 SWAP5 SWAP8 POP POP PUSH1 0x20 ADD SWAP5 POP POP POP JUMP JUMPDEST PUSH0 PUSH1 0x20 DUP3 DUP5 SUB SLT ISZERO PUSH2 0xF23 JUMPI PUSH0 DUP1 REVERT JUMPDEST POP CALLDATALOAD SWAP2 SWAP1 POP JUMP JUMPDEST PUSH4 0x4E487B71 PUSH1 0xE0 SHL PUSH0 MSTORE PUSH1 0x21 PUSH1 0x4 MSTORE PUSH1 0x24 PUSH0 REVERT JUMPDEST PUSH1 0x2 DUP2 LT PUSH2 0xF5A JUMPI PUSH4 0x4E487B71 PUSH1 0xE0 SHL PUSH0 MSTORE PUSH1 0x21 PUSH1 0x4 MSTORE PUSH1 0x24 PUSH0 REVERT JUMPDEST SWAP1 MSTORE JUMP JUMPDEST PUSH0 PUSH2 0x140 DUP3 ADD SWAP1 POP DUP3 MLOAD DUP3 MSTORE PUSH1 0x20 DUP4 ADD MLOAD PUSH1 0x20 DUP4 ADD MSTORE PUSH1 0x40 DUP4 ADD MLOAD PUSH2 0xF8E PUSH1 0x40 DUP5 ADD DUP3 PUSH1 0x1 PUSH1 0x1 PUSH1 0xA0 SHL SUB AND SWAP1 MSTORE JUMP JUMPDEST POP PUSH1 0x60 DUP4 ADD MLOAD PUSH2 0xFA6 PUSH1 0x60 DUP5 ADD DUP3 PUSH4 0xFFFFFFFF AND SWAP1 MSTORE JUMP JUMPDEST POP PUSH1 0x80 DUP4 ADD MLOAD PUSH2 0xFB9 PUSH1 0x80 DUP5 ADD DUP3 PUSH2 0xF3E JUMP JUMPDEST POP PUSH1 0xA0 DUP4 ADD MLOAD PUSH1 0xA0 DUP4 ADD MSTORE PUSH1 0xC0 DUP4 ADD MLOAD PUSH2 0xFDC PUSH1 0xC0 DUP5 ADD DUP3 PUSH5 0xFFFFFFFFFF AND SWAP1 MSTORE JUMP JUMPDEST POP PUSH1 0xE0 DUP4 ADD MLOAD PUSH2 0xFF5 PUSH1 0xE0 DUP5 ADD DUP3 PUSH5 0xFFFFFFFFFF AND SWAP1 MSTORE JUMP JUMPDEST POP PUSH2 0x100 DUP4 DUP2 ADD MLOAD DUP1 ISZERO ISZERO DUP5 DUP4 ADD MSTORE JUMPDEST POP POP PUSH2 0x120 SWAP3 DUP4 ADD MLOAD ISZERO ISZERO SWAP2 SWAP1 SWAP3 ADD MSTORE SWAP1 JUMP JUMPDEST DUP1 CALLDATALOAD PUSH4 0xFFFFFFFF DUP2 AND DUP2 EQ PUSH2 0xCFD JUMPI PUSH0 DUP1 REVERT JUMPDEST DUP1 ISZERO ISZERO DUP2 EQ PUSH2 0x1038 JUMPI PUSH0 DUP1 REVERT JUMPDEST POP JUMP JUMPDEST PUSH0 DUP1 PUSH0 DUP1 PUSH0 DUP1 PUSH0 DUP1 PUSH0 DUP1 PUSH2 0x140 DUP12 DUP14 SUB SLT ISZERO PUSH2 0x1055 JUMPI PUSH0 DUP1 REVERT JUMPDEST DUP11 CALLDATALOAD SWAP10 POP PUSH2 0x1065 PUSH1 0x20 DUP13 ADD PUSH2 0xE5C JUMP JUMPDEST SWAP9 POP PUSH2 0x1073 PUSH1 0x40 DUP13 ADD PUSH2 0xE5C JUMP JUMPDEST SWAP8 POP PUSH2 0x1081 PUSH1 0x60 DUP13 ADD PUSH2 0xE5C JUMP JUMPDEST SWAP7 POP PUSH1 0x80 DUP12 ADD CALLDATALOAD SWAP6 POP PUSH2 0x1096 PUSH1 0xA0 DUP13 ADD PUSH2 0x1018 JUMP JUMPDEST SWAP5 POP PUSH2 0x10A4 PUSH1 0xC0 DUP13 ADD PUSH2 0x1018 JUMP JUMPDEST SWAP4 POP PUSH1 0xE0 DUP12 ADD CALLDATALOAD PUSH1 0xFF DUP2 AND DUP2 EQ PUSH2 0x10B9 JUMPI PUSH0 DUP1 REVERT JUMPDEST SWAP3 POP PUSH2 0x100 DUP12 ADD CALLDATALOAD SWAP2 POP PUSH2 0x120 DUP12 ADD CALLDATALOAD PUSH2 0x10D2 DUP2 PUSH2 0x102B JUMP JUMPDEST DUP1 SWAP2 POP POP SWAP3 SWAP6 SWAP9 SWAP12 SWAP2 SWAP5 SWAP8 SWAP11 POP SWAP3 SWAP6 SWAP9 POP JUMP JUMPDEST DUP2 MLOAD PUSH1 0x1 PUSH1 0x1 PUSH1 0xA0 SHL SUB AND DUP2 MSTORE PUSH2 0x140 DUP2 ADD PUSH1 0x20 DUP4 ADD MLOAD PUSH2 0x1111 PUSH1 0x20 DUP5 ADD DUP3 PUSH1 0x1 PUSH1 0x1 PUSH1 0xA0 SHL SUB AND SWAP1 MSTORE JUMP JUMPDEST POP PUSH1 0x40 DUP4 ADD MLOAD PUSH2 0x112C PUSH1 0x40 DUP5 ADD DUP3 PUSH1 0x1 PUSH1 0x1 PUSH1 0xA0 SHL SUB AND SWAP1 MSTORE JUMP JUMPDEST POP PUSH1 0x60 DUP4 ADD MLOAD PUSH1 0x60 DUP4 ADD MSTORE PUSH1 0x80 DUP4 ADD MLOAD PUSH2 0x114E PUSH1 0x80 DUP5 ADD DUP3 PUSH4 0xFFFFFFFF AND SWAP1 MSTORE JUMP JUMPDEST POP PUSH1 0xA0 DUP4 ADD MLOAD PUSH2 0x1166 PUSH1 0xA0 DUP5 ADD DUP3 PUSH4 0xFFFFFFFF AND SWAP1 MSTORE JUMP JUMPDEST POP PUSH1 0xC0 DUP4 ADD MLOAD PUSH2 0x1179 PUSH1 0xC0 DUP5 ADD DUP3 PUSH2 0xF3E JUMP JUMPDEST POP PUSH1 0xE0 DUP4 ADD MLOAD PUSH1 0xE0 DUP4 ADD MSTORE PUSH2 0x100 DUP1 DUP5 ADD MLOAD PUSH2 0x1005 DUP3 DUP6 ADD DUP3 ISZERO ISZERO SWAP1 MSTORE JUMP JUMPDEST PUSH4 0x4E487B71 PUSH1 0xE0 SHL PUSH0 MSTORE PUSH1 0x11 PUSH1 0x4 MSTORE PUSH1 0x24 PUSH0 REVERT JUMPDEST PUSH4 0xFFFFFFFF DUP2 DUP2 AND DUP4 DUP3 AND ADD SWAP1 DUP1 DUP3 GT ISZERO PUSH2 0x11C9 JUMPI PUSH2 0x11C9 PUSH2 0x1198 JUMP JUMPDEST POP SWAP3 SWAP2 POP POP JUMP JUMPDEST DUP7 DUP2 MSTORE PUSH1 0xA0 PUSH1 0x20 DUP3 ADD MSTORE DUP5 PUSH1 0xA0 DUP3 ADD MSTORE DUP5 DUP7 PUSH1 0xC0 DUP4 ADD CALLDATACOPY PUSH0 PUSH1 0xC0 DUP7 DUP4 ADD DUP2 ADD SWAP2 SWAP1 SWAP2 MSTORE PUSH4 0xFFFFFFFF SWAP5 DUP6 AND PUSH1 0x40 DUP4 ADD MSTORE SWAP3 SWAP1 SWAP4 AND PUSH1 0x60 DUP5 ADD MSTORE PUSH1 0x1 PUSH1 0x1 PUSH1 0xA0 SHL SUB AND PUSH1 0x80 DUP4 ADD MSTORE PUSH1 0x1F SWAP1 SWAP3 ADD PUSH1 0x1F NOT AND ADD ADD SWAP3 SWAP2 POP POP JUMP JUMPDEST PUSH4 0xFFFFFFFF DUP3 DUP2 AND DUP3 DUP3 AND SUB SWAP1 DUP1 DUP3 GT ISZERO PUSH2 0x11C9 JUMPI PUSH2 0x11C9 PUSH2 0x1198 JUMP JUMPDEST DUP1 DUP3 ADD DUP1 DUP3 GT ISZERO PUSH2 0x4D2 JUMPI PUSH2 0x4D2 PUSH2 0x1198 JUMP JUMPDEST PUSH0 DUP3 MLOAD PUSH0 JUMPDEST DUP2 DUP2 LT ISZERO PUSH2 0x1277 JUMPI PUSH1 0x20 DUP2 DUP7 ADD DUP2 ADD MLOAD DUP6 DUP4 ADD MSTORE ADD PUSH2 0x125D JUMP JUMPDEST POP PUSH0 SWAP3 ADD SWAP2 DUP3 MSTORE POP SWAP2 SWAP1 POP JUMP JUMPDEST PUSH0 PUSH1 0x20 DUP3 DUP5 SUB SLT ISZERO PUSH2 0x1294 JUMPI PUSH0 DUP1 REVERT JUMPDEST DUP2 MLOAD PUSH2 0x129F DUP2 PUSH2 0x102B JUMP JUMPDEST SWAP4 SWAP3 POP POP POP JUMP INVALID LOG2 PUSH5 0x6970667358 0x22 SLT KECCAK256 DUP2 0x29 CREATE2 BALANCE DIV 0x28 SHR POP CALLDATASIZE LOG3 LT POP PUSH1 0x62 0xB3 0xBB ADDMOD 0x28 PUSH27 0xFAF487648C4C2E3C2F5723902164736F6C63430008180033000000 "},"methodIdentifiers":{"claimReward(bytes32)":"f5414023","configureStore(bytes32,address,address,address,uint256,uint32,uint32,uint8,uint256,bool)":"c2a38801","consumeReward(uint256)":"f940b313","getClaim(uint256)":"5aef2447","getProgress(address,bytes32)":"31fb697c","getStore(bytes32)":"f368e15c","nextClaimId()":"a0021cf1","owner()":"8da5cb5b","purchase(bytes32,uint256,string)":"33c945cc"}}}}}