{"project/contracts/mocks/MockFailingERC20.sol":{"MockFailingERC20":{"abi":[{"inputs":[{"internalType":"address","name":"","type":"address"},{"internalType":"address","name":"","type":"address"},{"internalType":"uint256","name":"","type":"uint256"}],"name":"transferFrom","outputs":[{"internalType":"bool","name":"","type":"bool"}],"stateMutability":"pure","type":"function"}],"evm":{"bytecode":{"linkReferences":{},"object":"608060405234801561000f575f80fd5b5060d58061001c5f395ff3fe6080604052348015600e575f80fd5b50600436106026575f3560e01c806323b872dd14602a575b5f80fd5b603d6035366004606b565b5f9392505050565b604051901515815260200160405180910390f35b80356001600160a01b03811681146066575f80fd5b919050565b5f805f60608486031215607c575f80fd5b6083846051565b9250608f602085016051565b915060408401359050925092509256fea264697066735822122091caf6a04b55666b84605bcc4485367b7d1dd8cffc44262bbc275e9adb5a28c164736f6c63430008180033","opcodes":"PUSH1 0x80 PUSH1 0x40 MSTORE CALLVALUE DUP1 ISZERO PUSH2 0xF JUMPI PUSH0 DUP1 REVERT JUMPDEST POP PUSH1 0xD5 DUP1 PUSH2 0x1C PUSH0 CODECOPY PUSH0 RETURN INVALID PUSH1 0x80 PUSH1 0x40 MSTORE CALLVALUE DUP1 ISZERO PUSH1 0xE JUMPI PUSH0 DUP1 REVERT JUMPDEST POP PUSH1 0x4 CALLDATASIZE LT PUSH1 0x26 JUMPI PUSH0 CALLDATALOAD PUSH1 0xE0 SHR DUP1 PUSH4 0x23B872DD EQ PUSH1 0x2A JUMPI JUMPDEST PUSH0 DUP1 REVERT JUMPDEST PUSH1 0x3D PUSH1 0x35 CALLDATASIZE PUSH1 0x4 PUSH1 0x6B JUMP JUMPDEST PUSH0 SWAP4 SWAP3 POP POP POP JUMP JUMPDEST PUSH1 0x40 MLOAD SWAP1 ISZERO ISZERO DUP2 MSTORE PUSH1 0x20 ADD PUSH1 0x40 MLOAD DUP1 SWAP2 SUB SWAP1 RETURN JUMPDEST DUP1 CALLDATALOAD PUSH1 0x1 PUSH1 0x1 PUSH1 0xA0 SHL SUB DUP2 AND DUP2 EQ PUSH1 0x66 JUMPI PUSH0 DUP1 REVERT JUMPDEST SWAP2 SWAP1 POP JUMP JUMPDEST PUSH0 DUP1 PUSH0 PUSH1 0x60 DUP5 DUP7 SUB SLT ISZERO PUSH1 0x7C JUMPI PUSH0 DUP1 REVERT JUMPDEST PUSH1 0x83 DUP5 PUSH1 0x51 JUMP JUMPDEST SWAP3 POP PUSH1 0x8F PUSH1 0x20 DUP6 ADD PUSH1 0x51 JUMP JUMPDEST SWAP2 POP PUSH1 0x40 DUP5 ADD CALLDATALOAD SWAP1 POP SWAP3 POP SWAP3 POP SWAP3 JUMP INVALID LOG2 PUSH5 0x6970667358 0x22 SLT KECCAK256 SWAP2 0xCA 0xF6 LOG0 0x4B SSTORE PUSH7 0x6B84605BCC4485 CALLDATASIZE PUSH28 0x7D1DD8CFFC44262BBC275E9ADB5A28C164736F6C6343000818003300 "},"methodIdentifiers":{"transferFrom(address,address,uint256)":"23b872dd"}}}}}