{"project/contracts/Noodl3Loyalty.sol":{"Noodl3Loyalty":{"abi":[{"inputs":[],"stateMutability":"nonpayable","type":"constructor"},{"inputs":[],"name":"AmountBelowMinimum","type":"error"},{"inputs":[],"name":"ClaimAlreadyConsumed","type":"error"},{"inputs":[],"name":"ClaimNotFound","type":"error"},{"inputs":[],"name":"InvalidProfile","type":"error"},{"inputs":[],"name":"InvalidStore","type":"error"},{"inputs":[],"name":"InvalidStoreConfig","type":"error"},{"inputs":[],"name":"NotEnoughStamps","type":"error"},{"inputs":[],"name":"NotOwner","type":"error"},{"inputs":[],"name":"NotStoreManager","type":"error"},{"inputs":[],"name":"StoreInactive","type":"error"},{"inputs":[],"name":"StoreNotFound","type":"error"},{"inputs":[],"name":"TransferFailed","type":"error"},{"inputs":[],"name":"UnsupportedToken","type":"error"},{"anonymous":false,"inputs":[{"indexed":true,"internalType":"address","name":"user","type":"address"},{"indexed":false,"internalType":"string","name":"displayName","type":"string"},{"indexed":false,"internalType":"string","name":"avatarUrl","type":"string"}],"name":"ProfileUpdated","type":"event"},{"anonymous":false,"inputs":[{"indexed":true,"internalType":"bytes32","name":"storeId","type":"bytes32"},{"indexed":true,"internalType":"address","name":"user","type":"address"},{"indexed":true,"internalType":"address","name":"token","type":"address"},{"indexed":false,"internalType":"uint256","name":"amount","type":"uint256"},{"indexed":false,"internalType":"string","name":"itemRef","type":"string"},{"indexed":false,"internalType":"uint32","name":"stampsEarned","type":"uint32"},{"indexed":false,"internalType":"uint32","name":"totalStamps","type":"uint32"},{"indexed":false,"internalType":"address","name":"payout","type":"address"}],"name":"PurchaseRecorded","type":"event"},{"anonymous":false,"inputs":[{"indexed":true,"internalType":"uint256","name":"claimId","type":"uint256"},{"indexed":true,"internalType":"bytes32","name":"storeId","type":"bytes32"},{"indexed":true,"internalType":"address","name":"user","type":"address"},{"indexed":false,"internalType":"uint8","name":"rewardType","type":"uint8"},{"indexed":false,"internalType":"uint256","name":"rewardValue","type":"uint256"},{"indexed":false,"internalType":"uint32","name":"burnedStamps","type":"uint32"}],"name":"RewardClaimed","type":"event"},{"anonymous":false,"inputs":[{"indexed":true,"internalType":"uint256","name":"claimId","type":"uint256"},{"indexed":true,"internalType":"bytes32","name":"storeId","type":"bytes32"},{"indexed":true,"internalType":"address","name":"manager","type":"address"},{"indexed":false,"internalType":"address","name":"user","type":"address"}],"name":"RewardConsumed","type":"event"},{"anonymous":false,"inputs":[{"indexed":true,"internalType":"bytes32","name":"storeId","type":"bytes32"},{"indexed":false,"internalType":"address","name":"payout","type":"address"},{"indexed":false,"internalType":"address","name":"manager","type":"address"},{"indexed":false,"internalType":"address","name":"token","type":"address"},{"indexed":false,"internalType":"uint256","name":"minPurchaseAmount","type":"uint256"},{"indexed":false,"internalType":"uint32","name":"stampsPerPurchase","type":"uint32"},{"indexed":false,"internalType":"uint32","name":"stampsRequired","type":"uint32"},{"indexed":false,"internalType":"uint8","name":"rewardType","type":"uint8"},{"indexed":false,"internalType":"uint256","name":"rewardValue","type":"uint256"},{"indexed":false,"internalType":"bool","name":"active","type":"bool"}],"name":"StoreConfigured","type":"event"},{"inputs":[{"internalType":"bytes32","name":"storeId","type":"bytes32"}],"name":"claimReward","outputs":[{"internalType":"uint256","name":"claimId","type":"uint256"}],"stateMutability":"nonpayable","type":"function"},{"inputs":[{"internalType":"bytes32","name":"storeId","type":"bytes32"},{"internalType":"address","name":"payout","type":"address"},{"internalType":"address","name":"manager","type":"address"},{"internalType":"address","name":"token","type":"address"},{"internalType":"uint256","name":"minPurchaseAmount","type":"uint256"},{"internalType":"uint32","name":"stampsPerPurchase","type":"uint32"},{"internalType":"uint32","name":"stampsRequired","type":"uint32"},{"internalType":"uint8","name":"rewardType","type":"uint8"},{"internalType":"uint256","name":"rewardValue","type":"uint256"},{"internalType":"bool","name":"active","type":"bool"}],"name":"configureStore","outputs":[],"stateMutability":"nonpayable","type":"function"},{"inputs":[{"internalType":"bytes32","name":"storeId","type":"bytes32"},{"internalType":"address[]","name":"tokens","type":"address[]"},{"internalType":"uint8[]","name":"decimals","type":"uint8[]"}],"name":"configureStoreAcceptedTokens","outputs":[],"stateMutability":"nonpayable","type":"function"},{"inputs":[{"internalType":"uint256","name":"claimId","type":"uint256"}],"name":"consumeReward","outputs":[],"stateMutability":"nonpayable","type":"function"},{"inputs":[{"internalType":"uint256","name":"claimId","type":"uint256"}],"name":"getClaim","outputs":[{"components":[{"internalType":"uint256","name":"id","type":"uint256"},{"internalType":"bytes32","name":"storeId","type":"bytes32"},{"internalType":"address","name":"user","type":"address"},{"internalType":"uint32","name":"burnedStamps","type":"uint32"},{"internalType":"enum Noodl3Loyalty.RewardType","name":"rewardType","type":"uint8"},{"internalType":"uint256","name":"rewardValue","type":"uint256"},{"internalType":"uint40","name":"claimedAt","type":"uint40"},{"internalType":"uint40","name":"consumedAt","type":"uint40"},{"internalType":"bool","name":"consumed","type":"bool"},{"internalType":"bool","name":"exists","type":"bool"}],"internalType":"struct Noodl3Loyalty.Claim","name":"","type":"tuple"}],"stateMutability":"view","type":"function"},{"inputs":[{"internalType":"address","name":"user","type":"address"}],"name":"getProfile","outputs":[{"components":[{"internalType":"string","name":"displayName","type":"string"},{"internalType":"string","name":"avatarUrl","type":"string"},{"internalType":"uint40","name":"updatedAt","type":"uint40"},{"internalType":"bool","name":"exists","type":"bool"}],"internalType":"struct Noodl3Loyalty.UserProfile","name":"","type":"tuple"}],"stateMutability":"view","type":"function"},{"inputs":[{"internalType":"address","name":"user","type":"address"},{"internalType":"bytes32","name":"storeId","type":"bytes32"}],"name":"getProgress","outputs":[{"internalType":"uint32","name":"stamps","type":"uint32"},{"internalType":"uint32","name":"stampsRequired","type":"uint32"},{"internalType":"uint32","name":"stampsPerPurchase","type":"uint32"},{"internalType":"uint8","name":"rewardType","type":"uint8"},{"internalType":"uint256","name":"rewardValue","type":"uint256"},{"internalType":"bool","name":"canClaim","type":"bool"}],"stateMutability":"view","type":"function"},{"inputs":[{"internalType":"bytes32","name":"storeId","type":"bytes32"}],"name":"getStore","outputs":[{"components":[{"internalType":"address","name":"payout","type":"address"},{"internalType":"address","name":"manager","type":"address"},{"internalType":"address","name":"token","type":"address"},{"internalType":"uint256","name":"minPurchaseAmount","type":"uint256"},{"internalType":"uint32","name":"stampsPerPurchase","type":"uint32"},{"internalType":"uint32","name":"stampsRequired","type":"uint32"},{"internalType":"enum Noodl3Loyalty.RewardType","name":"rewardType","type":"uint8"},{"internalType":"uint256","name":"rewardValue","type":"uint256"},{"internalType":"bool","name":"active","type":"bool"},{"internalType":"bool","name":"exists","type":"bool"}],"internalType":"struct Noodl3Loyalty.Store","name":"","type":"tuple"}],"stateMutability":"view","type":"function"},{"inputs":[{"internalType":"bytes32","name":"storeId","type":"bytes32"}],"name":"getStoreAcceptedTokens","outputs":[{"internalType":"address[]","name":"","type":"address[]"}],"stateMutability":"view","type":"function"},{"inputs":[{"internalType":"bytes32","name":"storeId","type":"bytes32"}],"name":"getStoreClaimIds","outputs":[{"internalType":"uint256[]","name":"","type":"uint256[]"}],"stateMutability":"view","type":"function"},{"inputs":[{"internalType":"bytes32","name":"storeId","type":"bytes32"}],"name":"getStoreParticipants","outputs":[{"internalType":"address[]","name":"","type":"address[]"}],"stateMutability":"view","type":"function"},{"inputs":[{"internalType":"address","name":"user","type":"address"}],"name":"getUserClaimIds","outputs":[{"internalType":"uint256[]","name":"","type":"uint256[]"}],"stateMutability":"view","type":"function"},{"inputs":[],"name":"nextClaimId","outputs":[{"internalType":"uint256","name":"","type":"uint256"}],"stateMutability":"view","type":"function"},{"inputs":[],"name":"owner","outputs":[{"internalType":"address","name":"","type":"address"}],"stateMutability":"view","type":"function"},{"inputs":[{"internalType":"bytes32","name":"storeId","type":"bytes32"},{"internalType":"address","name":"paymentToken","type":"address"},{"internalType":"uint256","name":"amount","type":"uint256"},{"internalType":"string","name":"itemRef","type":"string"}],"name":"purchase","outputs":[],"stateMutability":"nonpayable","type":"function"},{"inputs":[{"internalType":"string","name":"displayName","type":"string"},{"internalType":"string","name":"avatarUrl","type":"string"}],"name":"setProfile","outputs":[],"stateMutability":"nonpayable","type":"function"}],"evm":{"bytecode":{"linkReferences":{},"object":"60a060405260015f55348015610013575f80fd5b503360805260805161239f61003e5f395f818161020c015281816104eb0152610e7d015261239f5ff3fe608060405234801561000f575f80fd5b50600436106100fb575f3560e01c80638da5cb5b11610093578063f368e15c11610063578063f368e15c1461028f578063f5414023146102af578063f940b313146102c2578063fcd8a5cb146102d5575f80fd5b80638da5cb5b14610207578063a0021cf114610246578063b0030ee21461025c578063c2a388011461027c575f80fd5b8063437f12ea116100ce578063437f12ea146101ae57806344c94af2146101c15780635aef2447146101d4578063719e37ae146101f4575f80fd5b80630bc095e2146100ff5780630f53a4701461012857806315ef602a1461014857806331fb697c1461015d575b5f80fd5b61011261010d3660046119dc565b6102e8565b60405161011f91906119f5565b60405180910390f35b61013b6101363660046119dc565b610351565b60405161011f9190611a85565b61015b610156366004611b2f565b6104e0565b005b61017061016b366004611ba3565b6107b4565b6040805163ffffffff97881681529587166020870152939095169284019290925260ff166060830152608082015290151560a082015260c00161011f565b6101126101bc366004611bcb565b610843565b61015b6101cf366004611c20565b6108aa565b6101e76101e2366004611bcb565b610a8e565b60405161011f9190611ca6565b61015b610202366004611d60565b610be0565b61022e7f000000000000000000000000000000000000000000000000000000000000000081565b6040516001600160a01b03909116815260200161011f565b61024e5f5481565b60405190815260200161011f565b61026f61026a366004611bcb565b610e00565b60405161011f9190611dc7565b61015b61028a366004611e37565b610e72565b6102a261029d366004611bcb565b611188565b60405161011f9190611eda565b61024e6102bd366004611bcb565b611199565b61015b6102d0366004611bcb565b6114ac565b61026f6102e3366004611bcb565b6115d6565b6001600160a01b0381165f9081526008602090815260409182902080548351818402810184019094528084526060939283018282801561034557602002820191905f5260205f20905b815481526020019060010190808311610331575b50505050509050919050565b604080516080810182526060808252602082018190525f9282018390528101919091526001600160a01b0382165f908152600a6020526040908190208151608081019092528054829082906103a590611f8d565b80601f01602080910402602001604051908101604052809291908181526020018280546103d190611f8d565b801561041c5780601f106103f35761010080835404028352916020019161041c565b820191905f5260205f20905b8154815290600101906020018083116103ff57829003601f168201915b5050505050815260200160018201805461043590611f8d565b80601f016020809104026020016040519081016040528092919081815260200182805461046190611f8d565b80156104ac5780601f10610483576101008083540402835291602001916104ac565b820191905f5260205f20905b81548152906001019060200180831161048f57829003601f168201915b50505091835250506002919091015464ffffffffff81166020830152600160281b900460ff16151560409091015292915050565b336001600160a01b037f00000000000000000000000000000000000000000000000000000000000000001614610529576040516330cd747160e01b815260040160405180910390fd5b8215806105365750828114155b156105545760405163cf354ccd60e01b815260040160405180910390fd5b61055d85611647565b505f858152600660205260408120905b81548110156105d75760075f8881526020019081526020015f205f83838154811061059a5761059a611fc5565b5f9182526020808320909101546001600160a01b031683528201929092526040019020805460ff191690556105d0600182611fed565b905061056d565b505f8681526006602052604081206105ee9161193f565b5f5b848110156107ab575f86868381811061060b5761060b611fc5565b905060200201602081019061062091906119dc565b6001600160a01b0316148061065c575083838281811061064257610642611fc5565b90506020020160208101906106579190612000565b60ff16155b806106905750601284848381811061067657610676611fc5565b905060200201602081019061068b9190612000565b60ff16115b156106ae5760405163cf354ccd60e01b815260040160405180910390fd5b5f8781526006602052604090208686838181106106cd576106cd611fc5565b90506020020160208101906106e291906119dc565b81546001810183555f928352602090922090910180546001600160a01b0319166001600160a01b0390921691909117905583838281811061072557610725611fc5565b905060200201602081019061073a9190612000565b5f8881526007602052604081209088888581811061075a5761075a611fc5565b905060200201602081019061076f91906119dc565b6001600160a01b0316815260208101919091526040015f20805460ff191660ff929092169190911790556107a4600182611fed565b90506105f0565b50505050505050565b5f805f805f805f6107c488611647565b6001600160a01b038a165f9081526002602090815260408083208c845290915290205460a0820151608083015160c084015163ffffffff9093169a509098509650909150600181111561081957610819611c72565b93508060e0015192508060a0015163ffffffff168763ffffffff1610159150509295509295509295565b606061084e82611647565b505f828152600960209081526040918290208054835181840281018401909452808452909183018282801561034557602002820191905f5260205f20908154815260200190600101908083116103315750505050509050919050565b5f6108b486611647565b90508061010001516108d9576040516351c16f1960e01b815260040160405180910390fd5b5f8681526007602090815260408083206001600160a01b038916845290915281205460ff169081900361091f5760405163350b944160e11b815260040160405180910390fd5b816060015161092e8683611749565b101561094d57604051632fcd1a0f60e01b815260040160405180910390fd5b61095c8633845f015188611786565b5f87815260056020908152604080832033845290915290205460ff166109d0575f87815260056020908152604080832033808552908352818420805460ff191660019081179091558b8552600484529184208054928301815584529190922090910180546001600160a01b03191690911790555b6080820151335f9081526002602090815260408083208b84529091528120549091610a009163ffffffff16612019565b335f8181526002602090815260408083208d845290915290819020805463ffffffff191663ffffffff85161790556080860151865191519394506001600160a01b038b16938c927f22785bcb2a49acc94ba1f1506e61bdf297a86638017991fd186024c1493efd9392610a7c928d928d928d9290918b91612065565b60405180910390a45050505050505050565b60408051610140810182525f80825260208201819052918101829052606081018290526080810182905260a0810182905260c0810182905260e0810182905261010081018290526101208101919091525f828152600360209081526040808320815161014081018352815481526001808301549482019490945260028201546001600160a01b03811693820193909352600160a01b830463ffffffff1660608201529290916080840191600160c01b90910460ff1690811115610b5357610b53611c72565b6001811115610b6457610b64611c72565b81526003820154602082015260049091015464ffffffffff8082166040840152600160281b820416606083015260ff600160501b8204811615156080840152600160581b90910416151560a090910152610120810151909150610bda5760405163022af77760e11b815260040160405180910390fd5b92915050565b5f84848080601f0160208091040260200160405190810160405280939291908181526020018383808284375f920182905250604080516020601f8a0181900481028201810190925288815295965090949350879250869150819084018382808284375f92019190915250508451929350509015905080610c61575060288251115b80610c6e57506101188151115b15610c8c576040516367ab1ce960e11b815260040160405180910390fd5b5f8151118015610ca25750610ca08161188f565b155b15610cc0576040516367ab1ce960e11b815260040160405180910390fd5b604051806080016040528087878080601f0160208091040260200160405190810160405280939291908181526020018383808284375f92019190915250505090825250604080516020601f8801819004810282018101909252868152918101919087908790819084018382808284375f92018290525093855250505064ffffffffff42166020808401919091526001604093840152338252600a90522081518190610d6b908261210e565b5060208201516001820190610d80908261210e565b50604082810151600290920180546060909401511515600160281b0265ffffffffffff1990941664ffffffffff909316929092179290921790555133907f6eb3a1c6a4675ba92d44e090515b1ceea358f26565d2854df0c99c3f5eaf985090610df09089908990899089906121ca565b60405180910390a2505050505050565b6060610e0b82611647565b505f828152600460209081526040918290208054835181840281018401909452808452909183018282801561034557602002820191905f5260205f20905b81546001600160a01b03168152600190910190602001808311610e495750505050509050919050565b336001600160a01b037f00000000000000000000000000000000000000000000000000000000000000001614610ebb576040516330cd747160e01b815260040160405180910390fd5b89610ed8576040516204b76160e91b815260040160405180910390fd5b6001600160a01b0389161580610ef557506001600160a01b038816155b80610f0757506001600160a01b038716155b80610f16575063ffffffff8516155b80610f25575063ffffffff8416155b80610f2e575081155b80610f3c5750600160ff8416115b15610f5a5760405163cf354ccd60e01b815260040160405180910390fd5b6040518061014001604052808a6001600160a01b03168152602001896001600160a01b03168152602001886001600160a01b031681526020018781526020018663ffffffff1681526020018563ffffffff1681526020018460ff166001811115610fc657610fc6611c72565b6001811115610fd757610fd7611c72565b81526020808201859052831515604080840191909152600160609384018190525f8f8152818452829020855181546001600160a01b039182166001600160a01b03199182161783559487015182840180549183169187169190911790559286015160028201805491909416941693909317909155918301516003820155608083015160048201805460a086015163ffffffff9081166401000000000267ffffffffffffffff199092169316929092179190911780825560c0850151929368ff00000000000000001990911690600160401b9084908111156110ba576110ba611c72565b021790555060e08281015160058301556101008084015160069093018054610120958601511515830261ff00199515159590951661ffff199091161793909317909255604080516001600160a01b038e811682528d811660208301528c1681830152606081018b905263ffffffff8a81166080830152891660a082015260ff881660c08201529182018690528415159282019290925290518c927f8e4363fc554392bf632bd4ea51c03fa520b64fdfb8f88a299d40933240bf2297928290030190a250505050505050505050565b61119061195d565b610bda82611647565b5f806111a483611647565b90508061010001516111c9576040516351c16f1960e01b815260040160405180910390fd5b335f90815260026020908152604080832086845290915290205460a082015163ffffffff918216911681101561121257604051630c464fc960e41b815260040160405180910390fd5b60a082015161122190826121fb565b335f9081526002602090815260408083208884529091528120805463ffffffff191663ffffffff939093169290921790915580549350600190806112658387611fed565b92505081905550604051806101400160405280848152602001858152602001336001600160a01b031681526020018360a0015163ffffffff1681526020018360c0015160018111156112b9576112b9611c72565b815260e084015160208083019190915264ffffffffff42166040808401919091525f60608085018290526080808601839052600160a09096018690528983526003855291839020865181559386015184860155918501516002840180549387015163ffffffff16600160a01b026001600160c01b03199094166001600160a01b03909216919091179290921780835590850151929360ff60c01b1990911690600160c01b90849081111561136f5761136f611c72565b021790555060a0820151600382015560c0808301516004909201805460e0850151610100860151610120909601511515600160581b0260ff60581b19961515600160501b029690961661ffff60501b1964ffffffffff928316600160281b0269ffffffffffffffffffff199094169290961691909117919091179390931692909217929092179055335f8181526008602090815260408083208054600181810183559185528385200189905589845260098352908320805480830182559084529190922001869055918401519091869186917fe9a02dd9f3ceed2bd34b0ad478d1d34c14a5190601efceed4e0b26ef13954550919081111561147357611473611c72565b60e087015160a08801516040805160ff9094168452602084019290925263ffffffff169082015260600160405180910390a45050919050565b5f8181526003602052604090206004810154600160581b900460ff166114e55760405163022af77760e11b815260040160405180910390fd5b6004810154600160501b900460ff16156115125760405163b8e1234f60e01b815260040160405180910390fd5b5f6115208260010154611647565b905080602001516001600160a01b0316336001600160a01b0316146115585760405163729139d960e11b815260040160405180910390fd5b600482018054600160501b6affffffffffff000000000019909116600160281b4264ffffffffff160217179055600182015460028301546040516001600160a01b03909116815233919085907f3c2c0bc2ac2249ed5c8e4d05ed0ed77c5b2d050faf9dde1a971ebda3ca6aed0e9060200160405180910390a4505050565b60606115e182611647565b505f828152600660209081526040918290208054835181840281018401909452808452909183018282801561034557602002820191905f5260205f209081546001600160a01b03168152600190910190602001808311610e495750505050509050919050565b61164f61195d565b5f8281526001602081815260409283902083516101408101855281546001600160a01b0390811682528285015481169382019390935260028201549092169382019390935260038301546060820152600483015463ffffffff808216608084015264010000000082041660a083015290929160c0840191600160401b900460ff16908111156116e0576116e0611c72565b60018111156116f1576116f1611c72565b81526005820154602082015260069091015460ff80821615156040840152610100909104161515606090910152610120810151909150611744576040516353dadde160e11b815260040160405180910390fd5b919050565b5f8160ff1660120361175c575081610bda565b611767826012612218565b6117759060ff16600a612311565b61177f908461231c565b9392505050565b6040516001600160a01b0384811660248301528381166044830152606482018390525f91829187169060840160408051601f198184030181529181526020820180516001600160e01b03166323b872dd60e01b179052516117e79190612333565b5f604051808303815f865af19150503d805f8114611820576040519150601f19603f3d011682016040523d82523d5f602084013e611825565b606091505b509150915081611848576040516312171d8360e31b815260040160405180910390fd5b5f8151118015611869575080806020019051810190611867919061234e565b155b15611887576040516312171d8360e31b815260040160405180910390fd5b505050505050565b6040805180820190915260088082526768747470733a2f2f60c01b602083015282515f929111156118c257505f92915050565b5f5b8151811015611935578181815181106118df576118df611fc5565b602001015160f81c60f81b6001600160f81b03191684828151811061190657611906611fc5565b01602001516001600160f81b0319161461192357505f9392505050565b61192e600182611fed565b90506118c4565b5060019392505050565b5080545f8255905f5260205f209081019061195a91906119ae565b50565b60408051610140810182525f80825260208201819052918101829052606081018290526080810182905260a081018290529060c082019081525f602082018190526040820181905260609091015290565b5b808211156119c2575f81556001016119af565b5090565b80356001600160a01b0381168114611744575f80fd5b5f602082840312156119ec575f80fd5b61177f826119c6565b602080825282518282018190525f9190848201906040850190845b81811015611a2c57835183529284019291840191600101611a10565b50909695505050505050565b5f5b83811015611a52578181015183820152602001611a3a565b50505f910152565b5f8151808452611a71816020860160208601611a38565b601f01601f19169290920160200192915050565b602081525f825160806020840152611aa060a0840182611a5a565b90506020840151601f19848303016040850152611abd8282611a5a565b91505064ffffffffff60408501511660608401526060840151151560808401528091505092915050565b5f8083601f840112611af7575f80fd5b50813567ffffffffffffffff811115611b0e575f80fd5b6020830191508360208260051b8501011115611b28575f80fd5b9250929050565b5f805f805f60608688031215611b43575f80fd5b85359450602086013567ffffffffffffffff80821115611b61575f80fd5b611b6d89838a01611ae7565b90965094506040880135915080821115611b85575f80fd5b50611b9288828901611ae7565b969995985093965092949392505050565b5f8060408385031215611bb4575f80fd5b611bbd836119c6565b946020939093013593505050565b5f60208284031215611bdb575f80fd5b5035919050565b5f8083601f840112611bf2575f80fd5b50813567ffffffffffffffff811115611c09575f80fd5b602083019150836020828501011115611b28575f80fd5b5f805f805f60808688031215611c34575f80fd5b85359450611c44602087016119c6565b935060408601359250606086013567ffffffffffffffff811115611c66575f80fd5b611b9288828901611be2565b634e487b7160e01b5f52602160045260245ffd5b60028110611ca257634e487b7160e01b5f52602160045260245ffd5b9052565b5f6101408201905082518252602083015160208301526040830151611cd660408401826001600160a01b03169052565b506060830151611cee606084018263ffffffff169052565b506080830151611d016080840182611c86565b5060a083015160a083015260c0830151611d2460c084018264ffffffffff169052565b5060e0830151611d3d60e084018264ffffffffff169052565b5061010083810151801515848301525b5050610120928301511515919092015290565b5f805f8060408587031215611d73575f80fd5b843567ffffffffffffffff80821115611d8a575f80fd5b611d9688838901611be2565b90965094506020870135915080821115611dae575f80fd5b50611dbb87828801611be2565b95989497509550505050565b602080825282518282018190525f9190848201906040850190845b81811015611a2c5783516001600160a01b031683529284019291840191600101611de2565b803563ffffffff81168114611744575f80fd5b803560ff81168114611744575f80fd5b801515811461195a575f80fd5b5f805f805f805f805f806101408b8d031215611e51575f80fd5b8a359950611e6160208c016119c6565b9850611e6f60408c016119c6565b9750611e7d60608c016119c6565b965060808b01359550611e9260a08c01611e07565b9450611ea060c08c01611e07565b9350611eae60e08c01611e1a565b92506101008b013591506101208b0135611ec781611e2a565b809150509295989b9194979a5092959850565b81516001600160a01b0316815261014081016020830151611f0660208401826001600160a01b03169052565b506040830151611f2160408401826001600160a01b03169052565b50606083015160608301526080830151611f43608084018263ffffffff169052565b5060a0830151611f5b60a084018263ffffffff169052565b5060c0830151611f6e60c0840182611c86565b5060e083015160e083015261010080840151611d4d8285018215159052565b600181811c90821680611fa157607f821691505b602082108103611fbf57634e487b7160e01b5f52602260045260245ffd5b50919050565b634e487b7160e01b5f52603260045260245ffd5b634e487b7160e01b5f52601160045260245ffd5b80820180821115610bda57610bda611fd9565b5f60208284031215612010575f80fd5b61177f82611e1a565b63ffffffff81811683821601908082111561203657612036611fd9565b5092915050565b81835281816020850137505f828201602090810191909152601f909101601f19169091010190565b86815260a060208201525f61207e60a08301878961203d565b63ffffffff95861660408401529390941660608201526001600160a01b0391909116608090910152949350505050565b634e487b7160e01b5f52604160045260245ffd5b601f82111561210957805f5260205f20601f840160051c810160208510156120e75750805b601f840160051c820191505b81811015612106575f81556001016120f3565b50505b505050565b815167ffffffffffffffff811115612128576121286120ae565b61213c816121368454611f8d565b846120c2565b602080601f83116001811461216f575f84156121585750858301515b5f19600386901b1c1916600185901b178555611887565b5f85815260208120601f198616915b8281101561219d5788860151825594840194600190910190840161217e565b50858210156121ba57878501515f19600388901b60f8161c191681555b5050505050600190811b01905550565b604081525f6121dd60408301868861203d565b82810360208401526121f081858761203d565b979650505050505050565b63ffffffff82811682821603908082111561203657612036611fd9565b60ff8281168282160390811115610bda57610bda611fd9565b600181815b8085111561226b57815f190482111561225157612251611fd9565b8085161561225e57918102915b93841c9390800290612236565b509250929050565b5f8261228157506001610bda565b8161228d57505f610bda565b81600181146122a357600281146122ad576122c9565b6001915050610bda565b60ff8411156122be576122be611fd9565b50506001821b610bda565b5060208310610133831016604e8410600b84101617156122ec575081810a610bda565b6122f68383612231565b805f190482111561230957612309611fd9565b029392505050565b5f61177f8383612273565b8082028115828204841417610bda57610bda611fd9565b5f8251612344818460208701611a38565b9190910192915050565b5f6020828403121561235e575f80fd5b815161177f81611e2a56fea2646970667358221220f149195b46c6252d3a89edc578956a504e5eec8e74468392c70c21955a3cb49364736f6c63430008180033","opcodes":"PUSH1 0xA0 PUSH1 0x40 MSTORE PUSH1 0x1 PUSH0 SSTORE CALLVALUE DUP1 ISZERO PUSH2 0x13 JUMPI PUSH0 DUP1 REVERT JUMPDEST POP CALLER PUSH1 0x80 MSTORE PUSH1 0x80 MLOAD PUSH2 0x239F PUSH2 0x3E PUSH0 CODECOPY PUSH0 DUP2 DUP2 PUSH2 0x20C ADD MSTORE DUP2 DUP2 PUSH2 0x4EB ADD MSTORE PUSH2 0xE7D ADD MSTORE PUSH2 0x239F PUSH0 RETURN INVALID PUSH1 0x80 PUSH1 0x40 MSTORE CALLVALUE DUP1 ISZERO PUSH2 0xF JUMPI PUSH0 DUP1 REVERT JUMPDEST POP PUSH1 0x4 CALLDATASIZE LT PUSH2 0xFB JUMPI PUSH0 CALLDATALOAD PUSH1 0xE0 SHR DUP1 PUSH4 0x8DA5CB5B GT PUSH2 0x93 JUMPI DUP1 PUSH4 0xF368E15C GT PUSH2 0x63 JUMPI DUP1 PUSH4 0xF368E15C EQ PUSH2 0x28F JUMPI DUP1 PUSH4 0xF5414023 EQ PUSH2 0x2AF JUMPI DUP1 PUSH4 0xF940B313 EQ PUSH2 0x2C2 JUMPI DUP1 PUSH4 0xFCD8A5CB EQ PUSH2 0x2D5 JUMPI PUSH0 DUP1 REVERT JUMPDEST DUP1 PUSH4 0x8DA5CB5B EQ PUSH2 0x207 JUMPI DUP1 PUSH4 0xA0021CF1 EQ PUSH2 0x246 JUMPI DUP1 PUSH4 0xB0030EE2 EQ PUSH2 0x25C JUMPI DUP1 PUSH4 0xC2A38801 EQ PUSH2 0x27C JUMPI PUSH0 DUP1 REVERT JUMPDEST DUP1 PUSH4 0x437F12EA GT PUSH2 0xCE JUMPI DUP1 PUSH4 0x437F12EA EQ PUSH2 0x1AE JUMPI DUP1 PUSH4 0x44C94AF2 EQ PUSH2 0x1C1 JUMPI DUP1 PUSH4 0x5AEF2447 EQ PUSH2 0x1D4 JUMPI DUP1 PUSH4 0x719E37AE EQ PUSH2 0x1F4 JUMPI PUSH0 DUP1 REVERT JUMPDEST DUP1 PUSH4 0xBC095E2 EQ PUSH2 0xFF JUMPI DUP1 PUSH4 0xF53A470 EQ PUSH2 0x128 JUMPI DUP1 PUSH4 0x15EF602A EQ PUSH2 0x148 JUMPI DUP1 PUSH4 0x31FB697C EQ PUSH2 0x15D JUMPI JUMPDEST PUSH0 DUP1 REVERT JUMPDEST PUSH2 0x112 PUSH2 0x10D CALLDATASIZE PUSH1 0x4 PUSH2 0x19DC JUMP JUMPDEST PUSH2 0x2E8 JUMP JUMPDEST PUSH1 0x40 MLOAD PUSH2 0x11F SWAP2 SWAP1 PUSH2 0x19F5 JUMP JUMPDEST PUSH1 0x40 MLOAD DUP1 SWAP2 SUB SWAP1 RETURN JUMPDEST PUSH2 0x13B PUSH2 0x136 CALLDATASIZE PUSH1 0x4 PUSH2 0x19DC JUMP JUMPDEST PUSH2 0x351 JUMP JUMPDEST PUSH1 0x40 MLOAD PUSH2 0x11F SWAP2 SWAP1 PUSH2 0x1A85 JUMP JUMPDEST PUSH2 0x15B PUSH2 0x156 CALLDATASIZE PUSH1 0x4 PUSH2 0x1B2F JUMP JUMPDEST PUSH2 0x4E0 JUMP JUMPDEST STOP JUMPDEST PUSH2 0x170 PUSH2 0x16B CALLDATASIZE PUSH1 0x4 PUSH2 0x1BA3 JUMP JUMPDEST PUSH2 0x7B4 JUMP JUMPDEST PUSH1 0x40 DUP1 MLOAD PUSH4 0xFFFFFFFF SWAP8 DUP9 AND DUP2 MSTORE SWAP6 DUP8 AND PUSH1 0x20 DUP8 ADD MSTORE SWAP4 SWAP1 SWAP6 AND SWAP3 DUP5 ADD SWAP3 SWAP1 SWAP3 MSTORE PUSH1 0xFF AND PUSH1 0x60 DUP4 ADD MSTORE PUSH1 0x80 DUP3 ADD MSTORE SWAP1 ISZERO ISZERO PUSH1 0xA0 DUP3 ADD MSTORE PUSH1 0xC0 ADD PUSH2 0x11F JUMP JUMPDEST PUSH2 0x112 PUSH2 0x1BC CALLDATASIZE PUSH1 0x4 PUSH2 0x1BCB JUMP JUMPDEST PUSH2 0x843 JUMP JUMPDEST PUSH2 0x15B PUSH2 0x1CF CALLDATASIZE PUSH1 0x4 PUSH2 0x1C20 JUMP JUMPDEST PUSH2 0x8AA JUMP JUMPDEST PUSH2 0x1E7 PUSH2 0x1E2 CALLDATASIZE PUSH1 0x4 PUSH2 0x1BCB JUMP JUMPDEST PUSH2 0xA8E JUMP JUMPDEST PUSH1 0x40 MLOAD PUSH2 0x11F SWAP2 SWAP1 PUSH2 0x1CA6 JUMP JUMPDEST PUSH2 0x15B PUSH2 0x202 CALLDATASIZE PUSH1 0x4 PUSH2 0x1D60 JUMP JUMPDEST PUSH2 0xBE0 JUMP JUMPDEST PUSH2 0x22E PUSH32 0x0 DUP2 JUMP JUMPDEST PUSH1 0x40 MLOAD PUSH1 0x1 PUSH1 0x1 PUSH1 0xA0 SHL SUB SWAP1 SWAP2 AND DUP2 MSTORE PUSH1 0x20 ADD PUSH2 0x11F JUMP JUMPDEST PUSH2 0x24E PUSH0 SLOAD DUP2 JUMP JUMPDEST PUSH1 0x40 MLOAD SWAP1 DUP2 MSTORE PUSH1 0x20 ADD PUSH2 0x11F JUMP JUMPDEST PUSH2 0x26F PUSH2 0x26A CALLDATASIZE PUSH1 0x4 PUSH2 0x1BCB JUMP JUMPDEST PUSH2 0xE00 JUMP JUMPDEST PUSH1 0x40 MLOAD PUSH2 0x11F SWAP2 SWAP1 PUSH2 0x1DC7 JUMP JUMPDEST PUSH2 0x15B PUSH2 0x28A CALLDATASIZE PUSH1 0x4 PUSH2 0x1E37 JUMP JUMPDEST PUSH2 0xE72 JUMP JUMPDEST PUSH2 0x2A2 PUSH2 0x29D CALLDATASIZE PUSH1 0x4 PUSH2 0x1BCB JUMP JUMPDEST PUSH2 0x1188 JUMP JUMPDEST PUSH1 0x40 MLOAD PUSH2 0x11F SWAP2 SWAP1 PUSH2 0x1EDA JUMP JUMPDEST PUSH2 0x24E PUSH2 0x2BD CALLDATASIZE PUSH1 0x4 PUSH2 0x1BCB JUMP JUMPDEST PUSH2 0x1199 JUMP JUMPDEST PUSH2 0x15B PUSH2 0x2D0 CALLDATASIZE PUSH1 0x4 PUSH2 0x1BCB JUMP JUMPDEST PUSH2 0x14AC JUMP JUMPDEST PUSH2 0x26F PUSH2 0x2E3 CALLDATASIZE PUSH1 0x4 PUSH2 0x1BCB JUMP JUMPDEST PUSH2 0x15D6 JUMP JUMPDEST PUSH1 0x1 PUSH1 0x1 PUSH1 0xA0 SHL SUB DUP2 AND PUSH0 SWAP1 DUP2 MSTORE PUSH1 0x8 PUSH1 0x20 SWAP1 DUP2 MSTORE PUSH1 0x40 SWAP2 DUP3 SWAP1 KECCAK256 DUP1 SLOAD DUP4 MLOAD DUP2 DUP5 MUL DUP2 ADD DUP5 ADD SWAP1 SWAP5 MSTORE DUP1 DUP5 MSTORE PUSH1 0x60 SWAP4 SWAP3 DUP4 ADD DUP3 DUP3 DUP1 ISZERO PUSH2 0x345 JUMPI PUSH1 0x20 MUL DUP3 ADD SWAP2 SWAP1 PUSH0 MSTORE PUSH1 0x20 PUSH0 KECCAK256 SWAP1 JUMPDEST DUP2 SLOAD DUP2 MSTORE PUSH1 0x20 ADD SWAP1 PUSH1 0x1 ADD SWAP1 DUP1 DUP4 GT PUSH2 0x331 JUMPI JUMPDEST POP POP POP POP POP SWAP1 POP SWAP2 SWAP1 POP JUMP JUMPDEST PUSH1 0x40 DUP1 MLOAD PUSH1 0x80 DUP2 ADD DUP3 MSTORE PUSH1 0x60 DUP1 DUP3 MSTORE PUSH1 0x20 DUP3 ADD DUP2 SWAP1 MSTORE PUSH0 SWAP3 DUP3 ADD DUP4 SWAP1 MSTORE DUP2 ADD SWAP2 SWAP1 SWAP2 MSTORE PUSH1 0x1 PUSH1 0x1 PUSH1 0xA0 SHL SUB DUP3 AND PUSH0 SWAP1 DUP2 MSTORE PUSH1 0xA PUSH1 0x20 MSTORE PUSH1 0x40 SWAP1 DUP2 SWAP1 KECCAK256 DUP2 MLOAD PUSH1 0x80 DUP2 ADD SWAP1 SWAP3 MSTORE DUP1 SLOAD DUP3 SWAP1 DUP3 SWAP1 PUSH2 0x3A5 SWAP1 PUSH2 0x1F8D JUMP JUMPDEST DUP1 PUSH1 0x1F ADD PUSH1 0x20 DUP1 SWAP2 DIV MUL PUSH1 0x20 ADD PUSH1 0x40 MLOAD SWAP1 DUP2 ADD PUSH1 0x40 MSTORE DUP1 SWAP3 SWAP2 SWAP1 DUP2 DUP2 MSTORE PUSH1 0x20 ADD DUP3 DUP1 SLOAD PUSH2 0x3D1 SWAP1 PUSH2 0x1F8D JUMP JUMPDEST DUP1 ISZERO PUSH2 0x41C JUMPI DUP1 PUSH1 0x1F LT PUSH2 0x3F3 JUMPI PUSH2 0x100 DUP1 DUP4 SLOAD DIV MUL DUP4 MSTORE SWAP2 PUSH1 0x20 ADD SWAP2 PUSH2 0x41C JUMP JUMPDEST DUP3 ADD SWAP2 SWAP1 PUSH0 MSTORE PUSH1 0x20 PUSH0 KECCAK256 SWAP1 JUMPDEST DUP2 SLOAD DUP2 MSTORE SWAP1 PUSH1 0x1 ADD SWAP1 PUSH1 0x20 ADD DUP1 DUP4 GT PUSH2 0x3FF JUMPI DUP3 SWAP1 SUB PUSH1 0x1F AND DUP3 ADD SWAP2 JUMPDEST POP POP POP POP POP DUP2 MSTORE PUSH1 0x20 ADD PUSH1 0x1 DUP3 ADD DUP1 SLOAD PUSH2 0x435 SWAP1 PUSH2 0x1F8D JUMP JUMPDEST DUP1 PUSH1 0x1F ADD PUSH1 0x20 DUP1 SWAP2 DIV MUL PUSH1 0x20 ADD PUSH1 0x40 MLOAD SWAP1 DUP2 ADD PUSH1 0x40 MSTORE DUP1 SWAP3 SWAP2 SWAP1 DUP2 DUP2 MSTORE PUSH1 0x20 ADD DUP3 DUP1 SLOAD PUSH2 0x461 SWAP1 PUSH2 0x1F8D JUMP JUMPDEST DUP1 ISZERO PUSH2 0x4AC JUMPI DUP1 PUSH1 0x1F LT PUSH2 0x483 JUMPI PUSH2 0x100 DUP1 DUP4 SLOAD DIV MUL DUP4 MSTORE SWAP2 PUSH1 0x20 ADD SWAP2 PUSH2 0x4AC JUMP JUMPDEST DUP3 ADD SWAP2 SWAP1 PUSH0 MSTORE PUSH1 0x20 PUSH0 KECCAK256 SWAP1 JUMPDEST DUP2 SLOAD DUP2 MSTORE SWAP1 PUSH1 0x1 ADD SWAP1 PUSH1 0x20 ADD DUP1 DUP4 GT PUSH2 0x48F JUMPI DUP3 SWAP1 SUB PUSH1 0x1F AND DUP3 ADD SWAP2 JUMPDEST POP POP POP SWAP2 DUP4 MSTORE POP POP PUSH1 0x2 SWAP2 SWAP1 SWAP2 ADD SLOAD PUSH5 0xFFFFFFFFFF DUP2 AND PUSH1 0x20 DUP4 ADD MSTORE PUSH1 0x1 PUSH1 0x28 SHL SWAP1 DIV PUSH1 0xFF AND ISZERO ISZERO PUSH1 0x40 SWAP1 SWAP2 ADD MSTORE SWAP3 SWAP2 POP POP JUMP JUMPDEST CALLER PUSH1 0x1 PUSH1 0x1 PUSH1 0xA0 SHL SUB PUSH32 0x0 AND EQ PUSH2 0x529 JUMPI PUSH1 0x40 MLOAD PUSH4 0x30CD7471 PUSH1 0xE0 SHL DUP2 MSTORE PUSH1 0x4 ADD PUSH1 0x40 MLOAD DUP1 SWAP2 SUB SWAP1 REVERT JUMPDEST DUP3 ISZERO DUP1 PUSH2 0x536 JUMPI POP DUP3 DUP2 EQ ISZERO JUMPDEST ISZERO PUSH2 0x554 JUMPI PUSH1 0x40 MLOAD PUSH4 0xCF354CCD PUSH1 0xE0 SHL DUP2 MSTORE PUSH1 0x4 ADD PUSH1 0x40 MLOAD DUP1 SWAP2 SUB SWAP1 REVERT JUMPDEST PUSH2 0x55D DUP6 PUSH2 0x1647 JUMP JUMPDEST POP PUSH0 DUP6 DUP2 MSTORE PUSH1 0x6 PUSH1 0x20 MSTORE PUSH1 0x40 DUP2 KECCAK256 SWAP1 JUMPDEST DUP2 SLOAD DUP2 LT ISZERO PUSH2 0x5D7 JUMPI PUSH1 0x7 PUSH0 DUP9 DUP2 MSTORE PUSH1 0x20 ADD SWAP1 DUP2 MSTORE PUSH1 0x20 ADD PUSH0 KECCAK256 PUSH0 DUP4 DUP4 DUP2 SLOAD DUP2 LT PUSH2 0x59A JUMPI PUSH2 0x59A PUSH2 0x1FC5 JUMP JUMPDEST PUSH0 SWAP2 DUP3 MSTORE PUSH1 0x20 DUP1 DUP4 KECCAK256 SWAP1 SWAP2 ADD SLOAD PUSH1 0x1 PUSH1 0x1 PUSH1 0xA0 SHL SUB AND DUP4 MSTORE DUP3 ADD SWAP3 SWAP1 SWAP3 MSTORE PUSH1 0x40 ADD SWAP1 KECCAK256 DUP1 SLOAD PUSH1 0xFF NOT AND SWAP1 SSTORE PUSH2 0x5D0 PUSH1 0x1 DUP3 PUSH2 0x1FED JUMP JUMPDEST SWAP1 POP PUSH2 0x56D JUMP JUMPDEST POP PUSH0 DUP7 DUP2 MSTORE PUSH1 0x6 PUSH1 0x20 MSTORE PUSH1 0x40 DUP2 KECCAK256 PUSH2 0x5EE SWAP2 PUSH2 0x193F JUMP JUMPDEST PUSH0 JUMPDEST DUP5 DUP2 LT ISZERO PUSH2 0x7AB JUMPI PUSH0 DUP7 DUP7 DUP4 DUP2 DUP2 LT PUSH2 0x60B JUMPI PUSH2 0x60B PUSH2 0x1FC5 JUMP JUMPDEST SWAP1 POP PUSH1 0x20 MUL ADD PUSH1 0x20 DUP2 ADD SWAP1 PUSH2 0x620 SWAP2 SWAP1 PUSH2 0x19DC JUMP JUMPDEST PUSH1 0x1 PUSH1 0x1 PUSH1 0xA0 SHL SUB AND EQ DUP1 PUSH2 0x65C JUMPI POP DUP4 DUP4 DUP3 DUP2 DUP2 LT PUSH2 0x642 JUMPI PUSH2 0x642 PUSH2 0x1FC5 JUMP JUMPDEST SWAP1 POP PUSH1 0x20 MUL ADD PUSH1 0x20 DUP2 ADD SWAP1 PUSH2 0x657 SWAP2 SWAP1 PUSH2 0x2000 JUMP JUMPDEST PUSH1 0xFF AND ISZERO JUMPDEST DUP1 PUSH2 0x690 JUMPI POP PUSH1 0x12 DUP5 DUP5 DUP4 DUP2 DUP2 LT PUSH2 0x676 JUMPI PUSH2 0x676 PUSH2 0x1FC5 JUMP JUMPDEST SWAP1 POP PUSH1 0x20 MUL ADD PUSH1 0x20 DUP2 ADD SWAP1 PUSH2 0x68B SWAP2 SWAP1 PUSH2 0x2000 JUMP JUMPDEST PUSH1 0xFF AND GT JUMPDEST ISZERO PUSH2 0x6AE JUMPI PUSH1 0x40 MLOAD PUSH4 0xCF354CCD PUSH1 0xE0 SHL DUP2 MSTORE PUSH1 0x4 ADD PUSH1 0x40 MLOAD DUP1 SWAP2 SUB SWAP1 REVERT JUMPDEST PUSH0 DUP8 DUP2 MSTORE PUSH1 0x6 PUSH1 0x20 MSTORE PUSH1 0x40 SWAP1 KECCAK256 DUP7 DUP7 DUP4 DUP2 DUP2 LT PUSH2 0x6CD JUMPI PUSH2 0x6CD PUSH2 0x1FC5 JUMP JUMPDEST SWAP1 POP PUSH1 0x20 MUL ADD PUSH1 0x20 DUP2 ADD SWAP1 PUSH2 0x6E2 SWAP2 SWAP1 PUSH2 0x19DC JUMP JUMPDEST DUP2 SLOAD PUSH1 0x1 DUP2 ADD DUP4 SSTORE PUSH0 SWAP3 DUP4 MSTORE PUSH1 0x20 SWAP1 SWAP3 KECCAK256 SWAP1 SWAP2 ADD DUP1 SLOAD PUSH1 0x1 PUSH1 0x1 PUSH1 0xA0 SHL SUB NOT AND PUSH1 0x1 PUSH1 0x1 PUSH1 0xA0 SHL SUB SWAP1 SWAP3 AND SWAP2 SWAP1 SWAP2 OR SWAP1 SSTORE DUP4 DUP4 DUP3 DUP2 DUP2 LT PUSH2 0x725 JUMPI PUSH2 0x725 PUSH2 0x1FC5 JUMP JUMPDEST SWAP1 POP PUSH1 0x20 MUL ADD PUSH1 0x20 DUP2 ADD SWAP1 PUSH2 0x73A SWAP2 SWAP1 PUSH2 0x2000 JUMP JUMPDEST PUSH0 DUP9 DUP2 MSTORE PUSH1 0x7 PUSH1 0x20 MSTORE PUSH1 0x40 DUP2 KECCAK256 SWAP1 DUP9 DUP9 DUP6 DUP2 DUP2 LT PUSH2 0x75A JUMPI PUSH2 0x75A PUSH2 0x1FC5 JUMP JUMPDEST SWAP1 POP PUSH1 0x20 MUL ADD PUSH1 0x20 DUP2 ADD SWAP1 PUSH2 0x76F SWAP2 SWAP1 PUSH2 0x19DC JUMP JUMPDEST PUSH1 0x1 PUSH1 0x1 PUSH1 0xA0 SHL SUB AND DUP2 MSTORE PUSH1 0x20 DUP2 ADD SWAP2 SWAP1 SWAP2 MSTORE PUSH1 0x40 ADD PUSH0 KECCAK256 DUP1 SLOAD PUSH1 0xFF NOT AND PUSH1 0xFF SWAP3 SWAP1 SWAP3 AND SWAP2 SWAP1 SWAP2 OR SWAP1 SSTORE PUSH2 0x7A4 PUSH1 0x1 DUP3 PUSH2 0x1FED JUMP JUMPDEST SWAP1 POP PUSH2 0x5F0 JUMP JUMPDEST POP POP POP POP POP POP POP JUMP JUMPDEST PUSH0 DUP1 PUSH0 DUP1 PUSH0 DUP1 PUSH0 PUSH2 0x7C4 DUP9 PUSH2 0x1647 JUMP JUMPDEST PUSH1 0x1 PUSH1 0x1 PUSH1 0xA0 SHL SUB DUP11 AND PUSH0 SWAP1 DUP2 MSTORE PUSH1 0x2 PUSH1 0x20 SWAP1 DUP2 MSTORE PUSH1 0x40 DUP1 DUP4 KECCAK256 DUP13 DUP5 MSTORE SWAP1 SWAP2 MSTORE SWAP1 KECCAK256 SLOAD PUSH1 0xA0 DUP3 ADD MLOAD PUSH1 0x80 DUP4 ADD MLOAD PUSH1 0xC0 DUP5 ADD MLOAD PUSH4 0xFFFFFFFF SWAP1 SWAP4 AND SWAP11 POP SWAP1 SWAP9 POP SWAP7 POP SWAP1 SWAP2 POP PUSH1 0x1 DUP2 GT ISZERO PUSH2 0x819 JUMPI PUSH2 0x819 PUSH2 0x1C72 JUMP JUMPDEST SWAP4 POP DUP1 PUSH1 0xE0 ADD MLOAD SWAP3 POP DUP1 PUSH1 0xA0 ADD MLOAD PUSH4 0xFFFFFFFF AND DUP8 PUSH4 0xFFFFFFFF AND LT ISZERO SWAP2 POP POP SWAP3 SWAP6 POP SWAP3 SWAP6 POP SWAP3 SWAP6 JUMP JUMPDEST PUSH1 0x60 PUSH2 0x84E DUP3 PUSH2 0x1647 JUMP JUMPDEST POP PUSH0 DUP3 DUP2 MSTORE PUSH1 0x9 PUSH1 0x20 SWAP1 DUP2 MSTORE PUSH1 0x40 SWAP2 DUP3 SWAP1 KECCAK256 DUP1 SLOAD DUP4 MLOAD DUP2 DUP5 MUL DUP2 ADD DUP5 ADD SWAP1 SWAP5 MSTORE DUP1 DUP5 MSTORE SWAP1 SWAP2 DUP4 ADD DUP3 DUP3 DUP1 ISZERO PUSH2 0x345 JUMPI PUSH1 0x20 MUL DUP3 ADD SWAP2 SWAP1 PUSH0 MSTORE PUSH1 0x20 PUSH0 KECCAK256 SWAP1 DUP2 SLOAD DUP2 MSTORE PUSH1 0x20 ADD SWAP1 PUSH1 0x1 ADD SWAP1 DUP1 DUP4 GT PUSH2 0x331 JUMPI POP POP POP POP POP SWAP1 POP SWAP2 SWAP1 POP JUMP JUMPDEST PUSH0 PUSH2 0x8B4 DUP7 PUSH2 0x1647 JUMP JUMPDEST SWAP1 POP DUP1 PUSH2 0x100 ADD MLOAD PUSH2 0x8D9 JUMPI PUSH1 0x40 MLOAD PUSH4 0x51C16F19 PUSH1 0xE0 SHL DUP2 MSTORE PUSH1 0x4 ADD PUSH1 0x40 MLOAD DUP1 SWAP2 SUB SWAP1 REVERT JUMPDEST PUSH0 DUP7 DUP2 MSTORE PUSH1 0x7 PUSH1 0x20 SWAP1 DUP2 MSTORE PUSH1 0x40 DUP1 DUP4 KECCAK256 PUSH1 0x1 PUSH1 0x1 PUSH1 0xA0 SHL SUB DUP10 AND DUP5 MSTORE SWAP1 SWAP2 MSTORE DUP2 KECCAK256 SLOAD PUSH1 0xFF AND SWAP1 DUP2 SWAP1 SUB PUSH2 0x91F JUMPI PUSH1 0x40 MLOAD PUSH4 0x350B9441 PUSH1 0xE1 SHL DUP2 MSTORE PUSH1 0x4 ADD PUSH1 0x40 MLOAD DUP1 SWAP2 SUB SWAP1 REVERT JUMPDEST DUP2 PUSH1 0x60 ADD MLOAD PUSH2 0x92E DUP7 DUP4 PUSH2 0x1749 JUMP JUMPDEST LT ISZERO PUSH2 0x94D JUMPI PUSH1 0x40 MLOAD PUSH4 0x2FCD1A0F PUSH1 0xE0 SHL DUP2 MSTORE PUSH1 0x4 ADD PUSH1 0x40 MLOAD DUP1 SWAP2 SUB SWAP1 REVERT JUMPDEST PUSH2 0x95C DUP7 CALLER DUP5 PUSH0 ADD MLOAD DUP9 PUSH2 0x1786 JUMP JUMPDEST PUSH0 DUP8 DUP2 MSTORE PUSH1 0x5 PUSH1 0x20 SWAP1 DUP2 MSTORE PUSH1 0x40 DUP1 DUP4 KECCAK256 CALLER DUP5 MSTORE SWAP1 SWAP2 MSTORE SWAP1 KECCAK256 SLOAD PUSH1 0xFF AND PUSH2 0x9D0 JUMPI PUSH0 DUP8 DUP2 MSTORE PUSH1 0x5 PUSH1 0x20 SWAP1 DUP2 MSTORE PUSH1 0x40 DUP1 DUP4 KECCAK256 CALLER DUP1 DUP6 MSTORE SWAP1 DUP4 MSTORE DUP2 DUP5 KECCAK256 DUP1 SLOAD PUSH1 0xFF NOT AND PUSH1 0x1 SWAP1 DUP2 OR SWAP1 SWAP2 SSTORE DUP12 DUP6 MSTORE PUSH1 0x4 DUP5 MSTORE SWAP2 DUP5 KECCAK256 DUP1 SLOAD SWAP3 DUP4 ADD DUP2 SSTORE DUP5 MSTORE SWAP2 SWAP1 SWAP3 KECCAK256 SWAP1 SWAP2 ADD DUP1 SLOAD PUSH1 0x1 PUSH1 0x1 PUSH1 0xA0 SHL SUB NOT AND SWAP1 SWAP2 OR SWAP1 SSTORE JUMPDEST PUSH1 0x80 DUP3 ADD MLOAD CALLER PUSH0 SWAP1 DUP2 MSTORE PUSH1 0x2 PUSH1 0x20 SWAP1 DUP2 MSTORE PUSH1 0x40 DUP1 DUP4 KECCAK256 DUP12 DUP5 MSTORE SWAP1 SWAP2 MSTORE DUP2 KECCAK256 SLOAD SWAP1 SWAP2 PUSH2 0xA00 SWAP2 PUSH4 0xFFFFFFFF AND PUSH2 0x2019 JUMP JUMPDEST CALLER PUSH0 DUP2 DUP2 MSTORE PUSH1 0x2 PUSH1 0x20 SWAP1 DUP2 MSTORE PUSH1 0x40 DUP1 DUP4 KECCAK256 DUP14 DUP5 MSTORE SWAP1 SWAP2 MSTORE SWAP1 DUP2 SWAP1 KECCAK256 DUP1 SLOAD PUSH4 0xFFFFFFFF NOT AND PUSH4 0xFFFFFFFF DUP6 AND OR SWAP1 SSTORE PUSH1 0x80 DUP7 ADD MLOAD DUP7 MLOAD SWAP2 MLOAD SWAP4 SWAP5 POP PUSH1 0x1 PUSH1 0x1 PUSH1 0xA0 SHL SUB DUP12 AND SWAP4 DUP13 SWAP3 PUSH32 0x22785BCB2A49ACC94BA1F1506E61BDF297A86638017991FD186024C1493EFD93 SWAP3 PUSH2 0xA7C SWAP3 DUP14 SWAP3 DUP14 SWAP3 DUP14 SWAP3 SWAP1 SWAP2 DUP12 SWAP2 PUSH2 0x2065 JUMP JUMPDEST PUSH1 0x40 MLOAD DUP1 SWAP2 SUB SWAP1 LOG4 POP POP POP POP POP POP POP POP JUMP JUMPDEST PUSH1 0x40 DUP1 MLOAD PUSH2 0x140 DUP2 ADD DUP3 MSTORE PUSH0 DUP1 DUP3 MSTORE PUSH1 0x20 DUP3 ADD DUP2 SWAP1 MSTORE SWAP2 DUP2 ADD DUP3 SWAP1 MSTORE PUSH1 0x60 DUP2 ADD DUP3 SWAP1 MSTORE PUSH1 0x80 DUP2 ADD DUP3 SWAP1 MSTORE PUSH1 0xA0 DUP2 ADD DUP3 SWAP1 MSTORE PUSH1 0xC0 DUP2 ADD DUP3 SWAP1 MSTORE PUSH1 0xE0 DUP2 ADD DUP3 SWAP1 MSTORE PUSH2 0x100 DUP2 ADD DUP3 SWAP1 MSTORE PUSH2 0x120 DUP2 ADD SWAP2 SWAP1 SWAP2 MSTORE PUSH0 DUP3 DUP2 MSTORE PUSH1 0x3 PUSH1 0x20 SWAP1 DUP2 MSTORE PUSH1 0x40 DUP1 DUP4 KECCAK256 DUP2 MLOAD PUSH2 0x140 DUP2 ADD DUP4 MSTORE DUP2 SLOAD DUP2 MSTORE PUSH1 0x1 DUP1 DUP4 ADD SLOAD SWAP5 DUP3 ADD SWAP5 SWAP1 SWAP5 MSTORE PUSH1 0x2 DUP3 ADD SLOAD PUSH1 0x1 PUSH1 0x1 PUSH1 0xA0 SHL SUB DUP2 AND SWAP4 DUP3 ADD SWAP4 SWAP1 SWAP4 MSTORE PUSH1 0x1 PUSH1 0xA0 SHL DUP4 DIV PUSH4 0xFFFFFFFF AND PUSH1 0x60 DUP3 ADD MSTORE SWAP3 SWAP1 SWAP2 PUSH1 0x80 DUP5 ADD SWAP2 PUSH1 0x1 PUSH1 0xC0 SHL SWAP1 SWAP2 DIV PUSH1 0xFF AND SWAP1 DUP2 GT ISZERO PUSH2 0xB53 JUMPI PUSH2 0xB53 PUSH2 0x1C72 JUMP JUMPDEST PUSH1 0x1 DUP2 GT ISZERO PUSH2 0xB64 JUMPI PUSH2 0xB64 PUSH2 0x1C72 JUMP JUMPDEST DUP2 MSTORE PUSH1 0x3 DUP3 ADD SLOAD PUSH1 0x20 DUP3 ADD MSTORE PUSH1 0x4 SWAP1 SWAP2 ADD SLOAD PUSH5 0xFFFFFFFFFF DUP1 DUP3 AND PUSH1 0x40 DUP5 ADD MSTORE PUSH1 0x1 PUSH1 0x28 SHL DUP3 DIV AND PUSH1 0x60 DUP4 ADD MSTORE PUSH1 0xFF PUSH1 0x1 PUSH1 0x50 SHL DUP3 DIV DUP2 AND ISZERO ISZERO PUSH1 0x80 DUP5 ADD MSTORE PUSH1 0x1 PUSH1 0x58 SHL SWAP1 SWAP2 DIV AND ISZERO ISZERO PUSH1 0xA0 SWAP1 SWAP2 ADD MSTORE PUSH2 0x120 DUP2 ADD MLOAD SWAP1 SWAP2 POP PUSH2 0xBDA JUMPI PUSH1 0x40 MLOAD PUSH4 0x22AF777 PUSH1 0xE1 SHL DUP2 MSTORE PUSH1 0x4 ADD PUSH1 0x40 MLOAD DUP1 SWAP2 SUB SWAP1 REVERT JUMPDEST SWAP3 SWAP2 POP POP JUMP JUMPDEST PUSH0 DUP5 DUP5 DUP1 DUP1 PUSH1 0x1F ADD PUSH1 0x20 DUP1 SWAP2 DIV MUL PUSH1 0x20 ADD PUSH1 0x40 MLOAD SWAP1 DUP2 ADD PUSH1 0x40 MSTORE DUP1 SWAP4 SWAP3 SWAP2 SWAP1 DUP2 DUP2 MSTORE PUSH1 0x20 ADD DUP4 DUP4 DUP1 DUP3 DUP5 CALLDATACOPY PUSH0 SWAP3 ADD DUP3 SWAP1 MSTORE POP PUSH1 0x40 DUP1 MLOAD PUSH1 0x20 PUSH1 0x1F DUP11 ADD DUP2 SWAP1 DIV DUP2 MUL DUP3 ADD DUP2 ADD SWAP1 SWAP3 MSTORE DUP9 DUP2 MSTORE SWAP6 SWAP7 POP SWAP1 SWAP5 SWAP4 POP DUP8 SWAP3 POP DUP7 SWAP2 POP DUP2 SWAP1 DUP5 ADD DUP4 DUP3 DUP1 DUP3 DUP5 CALLDATACOPY PUSH0 SWAP3 ADD SWAP2 SWAP1 SWAP2 MSTORE POP POP DUP5 MLOAD SWAP3 SWAP4 POP POP SWAP1 ISZERO SWAP1 POP DUP1 PUSH2 0xC61 JUMPI POP PUSH1 0x28 DUP3 MLOAD GT JUMPDEST DUP1 PUSH2 0xC6E JUMPI POP PUSH2 0x118 DUP2 MLOAD GT JUMPDEST ISZERO PUSH2 0xC8C JUMPI PUSH1 0x40 MLOAD PUSH4 0x67AB1CE9 PUSH1 0xE1 SHL DUP2 MSTORE PUSH1 0x4 ADD PUSH1 0x40 MLOAD DUP1 SWAP2 SUB SWAP1 REVERT JUMPDEST PUSH0 DUP2 MLOAD GT DUP1 ISZERO PUSH2 0xCA2 JUMPI POP PUSH2 0xCA0 DUP2 PUSH2 0x188F JUMP JUMPDEST ISZERO JUMPDEST ISZERO PUSH2 0xCC0 JUMPI PUSH1 0x40 MLOAD PUSH4 0x67AB1CE9 PUSH1 0xE1 SHL DUP2 MSTORE PUSH1 0x4 ADD PUSH1 0x40 MLOAD DUP1 SWAP2 SUB SWAP1 REVERT JUMPDEST PUSH1 0x40 MLOAD DUP1 PUSH1 0x80 ADD PUSH1 0x40 MSTORE DUP1 DUP8 DUP8 DUP1 DUP1 PUSH1 0x1F ADD PUSH1 0x20 DUP1 SWAP2 DIV MUL PUSH1 0x20 ADD PUSH1 0x40 MLOAD SWAP1 DUP2 ADD PUSH1 0x40 MSTORE DUP1 SWAP4 SWAP3 SWAP2 SWAP1 DUP2 DUP2 MSTORE PUSH1 0x20 ADD DUP4 DUP4 DUP1 DUP3 DUP5 CALLDATACOPY PUSH0 SWAP3 ADD SWAP2 SWAP1 SWAP2 MSTORE POP POP POP SWAP1 DUP3 MSTORE POP PUSH1 0x40 DUP1 MLOAD PUSH1 0x20 PUSH1 0x1F DUP9 ADD DUP2 SWAP1 DIV DUP2 MUL DUP3 ADD DUP2 ADD SWAP1 SWAP3 MSTORE DUP7 DUP2 MSTORE SWAP2 DUP2 ADD SWAP2 SWAP1 DUP8 SWAP1 DUP8 SWAP1 DUP2 SWAP1 DUP5 ADD DUP4 DUP3 DUP1 DUP3 DUP5 CALLDATACOPY PUSH0 SWAP3 ADD DUP3 SWAP1 MSTORE POP SWAP4 DUP6 MSTORE POP POP POP PUSH5 0xFFFFFFFFFF TIMESTAMP AND PUSH1 0x20 DUP1 DUP5 ADD SWAP2 SWAP1 SWAP2 MSTORE PUSH1 0x1 PUSH1 0x40 SWAP4 DUP5 ADD MSTORE CALLER DUP3 MSTORE PUSH1 0xA SWAP1 MSTORE KECCAK256 DUP2 MLOAD DUP2 SWAP1 PUSH2 0xD6B SWAP1 DUP3 PUSH2 0x210E JUMP JUMPDEST POP PUSH1 0x20 DUP3 ADD MLOAD PUSH1 0x1 DUP3 ADD SWAP1 PUSH2 0xD80 SWAP1 DUP3 PUSH2 0x210E JUMP JUMPDEST POP PUSH1 0x40 DUP3 DUP2 ADD MLOAD PUSH1 0x2 SWAP1 SWAP3 ADD DUP1 SLOAD PUSH1 0x60 SWAP1 SWAP5 ADD MLOAD ISZERO ISZERO PUSH1 0x1 PUSH1 0x28 SHL MUL PUSH6 0xFFFFFFFFFFFF NOT SWAP1 SWAP5 AND PUSH5 0xFFFFFFFFFF SWAP1 SWAP4 AND SWAP3 SWAP1 SWAP3 OR SWAP3 SWAP1 SWAP3 OR SWAP1 SSTORE MLOAD CALLER SWAP1 PUSH32 0x6EB3A1C6A4675BA92D44E090515B1CEEA358F26565D2854DF0C99C3F5EAF9850 SWAP1 PUSH2 0xDF0 SWAP1 DUP10 SWAP1 DUP10 SWAP1 DUP10 SWAP1 DUP10 SWAP1 PUSH2 0x21CA JUMP JUMPDEST PUSH1 0x40 MLOAD DUP1 SWAP2 SUB SWAP1 LOG2 POP POP POP POP POP POP JUMP JUMPDEST PUSH1 0x60 PUSH2 0xE0B DUP3 PUSH2 0x1647 JUMP JUMPDEST POP PUSH0 DUP3 DUP2 MSTORE PUSH1 0x4 PUSH1 0x20 SWAP1 DUP2 MSTORE PUSH1 0x40 SWAP2 DUP3 SWAP1 KECCAK256 DUP1 SLOAD DUP4 MLOAD DUP2 DUP5 MUL DUP2 ADD DUP5 ADD SWAP1 SWAP5 MSTORE DUP1 DUP5 MSTORE SWAP1 SWAP2 DUP4 ADD DUP3 DUP3 DUP1 ISZERO PUSH2 0x345 JUMPI PUSH1 0x20 MUL DUP3 ADD SWAP2 SWAP1 PUSH0 MSTORE PUSH1 0x20 PUSH0 KECCAK256 SWAP1 JUMPDEST DUP2 SLOAD PUSH1 0x1 PUSH1 0x1 PUSH1 0xA0 SHL SUB AND DUP2 MSTORE PUSH1 0x1 SWAP1 SWAP2 ADD SWAP1 PUSH1 0x20 ADD DUP1 DUP4 GT PUSH2 0xE49 JUMPI POP POP POP POP POP SWAP1 POP SWAP2 SWAP1 POP JUMP JUMPDEST CALLER PUSH1 0x1 PUSH1 0x1 PUSH1 0xA0 SHL SUB PUSH32 0x0 AND EQ PUSH2 0xEBB JUMPI PUSH1 0x40 MLOAD PUSH4 0x30CD7471 PUSH1 0xE0 SHL DUP2 MSTORE PUSH1 0x4 ADD PUSH1 0x40 MLOAD DUP1 SWAP2 SUB SWAP1 REVERT JUMPDEST DUP10 PUSH2 0xED8 JUMPI PUSH1 0x40 MLOAD PUSH3 0x4B761 PUSH1 0xE9 SHL DUP2 MSTORE PUSH1 0x4 ADD PUSH1 0x40 MLOAD DUP1 SWAP2 SUB SWAP1 REVERT JUMPDEST PUSH1 0x1 PUSH1 0x1 PUSH1 0xA0 SHL SUB DUP10 AND ISZERO DUP1 PUSH2 0xEF5 JUMPI POP PUSH1 0x1 PUSH1 0x1 PUSH1 0xA0 SHL SUB DUP9 AND ISZERO JUMPDEST DUP1 PUSH2 0xF07 JUMPI POP PUSH1 0x1 PUSH1 0x1 PUSH1 0xA0 SHL SUB DUP8 AND ISZERO JUMPDEST DUP1 PUSH2 0xF16 JUMPI POP PUSH4 0xFFFFFFFF DUP6 AND ISZERO JUMPDEST DUP1 PUSH2 0xF25 JUMPI POP PUSH4 0xFFFFFFFF DUP5 AND ISZERO JUMPDEST DUP1 PUSH2 0xF2E JUMPI POP DUP2 ISZERO JUMPDEST DUP1 PUSH2 0xF3C JUMPI POP PUSH1 0x1 PUSH1 0xFF DUP5 AND GT JUMPDEST ISZERO PUSH2 0xF5A JUMPI PUSH1 0x40 MLOAD PUSH4 0xCF354CCD PUSH1 0xE0 SHL DUP2 MSTORE PUSH1 0x4 ADD PUSH1 0x40 MLOAD DUP1 SWAP2 SUB SWAP1 REVERT JUMPDEST PUSH1 0x40 MLOAD DUP1 PUSH2 0x140 ADD PUSH1 0x40 MSTORE DUP1 DUP11 PUSH1 0x1 PUSH1 0x1 PUSH1 0xA0 SHL SUB AND DUP2 MSTORE PUSH1 0x20 ADD DUP10 PUSH1 0x1 PUSH1 0x1 PUSH1 0xA0 SHL SUB AND DUP2 MSTORE PUSH1 0x20 ADD DUP9 PUSH1 0x1 PUSH1 0x1 PUSH1 0xA0 SHL SUB AND DUP2 MSTORE PUSH1 0x20 ADD DUP8 DUP2 MSTORE PUSH1 0x20 ADD DUP7 PUSH4 0xFFFFFFFF AND DUP2 MSTORE PUSH1 0x20 ADD DUP6 PUSH4 0xFFFFFFFF AND DUP2 MSTORE PUSH1 0x20 ADD DUP5 PUSH1 0xFF AND PUSH1 0x1 DUP2 GT ISZERO PUSH2 0xFC6 JUMPI PUSH2 0xFC6 PUSH2 0x1C72 JUMP JUMPDEST PUSH1 0x1 DUP2 GT ISZERO PUSH2 0xFD7 JUMPI PUSH2 0xFD7 PUSH2 0x1C72 JUMP JUMPDEST DUP2 MSTORE PUSH1 0x20 DUP1 DUP3 ADD DUP6 SWAP1 MSTORE DUP4 ISZERO ISZERO PUSH1 0x40 DUP1 DUP5 ADD SWAP2 SWAP1 SWAP2 MSTORE PUSH1 0x1 PUSH1 0x60 SWAP4 DUP5 ADD DUP2 SWAP1 MSTORE PUSH0 DUP16 DUP2 MSTORE DUP2 DUP5 MSTORE DUP3 SWAP1 KECCAK256 DUP6 MLOAD DUP2 SLOAD PUSH1 0x1 PUSH1 0x1 PUSH1 0xA0 SHL SUB SWAP2 DUP3 AND PUSH1 0x1 PUSH1 0x1 PUSH1 0xA0 SHL SUB NOT SWAP2 DUP3 AND OR DUP4 SSTORE SWAP5 DUP8 ADD MLOAD DUP3 DUP5 ADD DUP1 SLOAD SWAP2 DUP4 AND SWAP2 DUP8 AND SWAP2 SWAP1 SWAP2 OR SWAP1 SSTORE SWAP3 DUP7 ADD MLOAD PUSH1 0x2 DUP3 ADD DUP1 SLOAD SWAP2 SWAP1 SWAP5 AND SWAP5 AND SWAP4 SWAP1 SWAP4 OR SWAP1 SWAP2 SSTORE SWAP2 DUP4 ADD MLOAD PUSH1 0x3 DUP3 ADD SSTORE PUSH1 0x80 DUP4 ADD MLOAD PUSH1 0x4 DUP3 ADD DUP1 SLOAD PUSH1 0xA0 DUP7 ADD MLOAD PUSH4 0xFFFFFFFF SWAP1 DUP2 AND PUSH5 0x100000000 MUL PUSH8 0xFFFFFFFFFFFFFFFF NOT SWAP1 SWAP3 AND SWAP4 AND SWAP3 SWAP1 SWAP3 OR SWAP2 SWAP1 SWAP2 OR DUP1 DUP3 SSTORE PUSH1 0xC0 DUP6 ADD MLOAD SWAP3 SWAP4 PUSH9 0xFF0000000000000000 NOT SWAP1 SWAP2 AND SWAP1 PUSH1 0x1 PUSH1 0x40 SHL SWAP1 DUP5 SWAP1 DUP2 GT ISZERO PUSH2 0x10BA JUMPI PUSH2 0x10BA PUSH2 0x1C72 JUMP JUMPDEST MUL OR SWAP1 SSTORE POP PUSH1 0xE0 DUP3 DUP2 ADD MLOAD PUSH1 0x5 DUP4 ADD SSTORE PUSH2 0x100 DUP1 DUP5 ADD MLOAD PUSH1 0x6 SWAP1 SWAP4 ADD DUP1 SLOAD PUSH2 0x120 SWAP6 DUP7 ADD MLOAD ISZERO ISZERO DUP4 MUL PUSH2 0xFF00 NOT SWAP6 ISZERO ISZERO SWAP6 SWAP1 SWAP6 AND PUSH2 0xFFFF NOT SWAP1 SWAP2 AND OR SWAP4 SWAP1 SWAP4 OR SWAP1 SWAP3 SSTORE PUSH1 0x40 DUP1 MLOAD PUSH1 0x1 PUSH1 0x1 PUSH1 0xA0 SHL SUB DUP15 DUP2 AND DUP3 MSTORE DUP14 DUP2 AND PUSH1 0x20 DUP4 ADD MSTORE DUP13 AND DUP2 DUP4 ADD MSTORE PUSH1 0x60 DUP2 ADD DUP12 SWAP1 MSTORE PUSH4 0xFFFFFFFF DUP11 DUP2 AND PUSH1 0x80 DUP4 ADD MSTORE DUP10 AND PUSH1 0xA0 DUP3 ADD MSTORE PUSH1 0xFF DUP9 AND PUSH1 0xC0 DUP3 ADD MSTORE SWAP2 DUP3 ADD DUP7 SWAP1 MSTORE DUP5 ISZERO ISZERO SWAP3 DUP3 ADD SWAP3 SWAP1 SWAP3 MSTORE SWAP1 MLOAD DUP13 SWAP3 PUSH32 0x8E4363FC554392BF632BD4EA51C03FA520B64FDFB8F88A299D40933240BF2297 SWAP3 DUP3 SWAP1 SUB ADD SWAP1 LOG2 POP POP POP POP POP POP POP POP POP POP JUMP JUMPDEST PUSH2 0x1190 PUSH2 0x195D JUMP JUMPDEST PUSH2 0xBDA DUP3 PUSH2 0x1647 JUMP JUMPDEST PUSH0 DUP1 PUSH2 0x11A4 DUP4 PUSH2 0x1647 JUMP JUMPDEST SWAP1 POP DUP1 PUSH2 0x100 ADD MLOAD PUSH2 0x11C9 JUMPI PUSH1 0x40 MLOAD PUSH4 0x51C16F19 PUSH1 0xE0 SHL DUP2 MSTORE PUSH1 0x4 ADD PUSH1 0x40 MLOAD DUP1 SWAP2 SUB SWAP1 REVERT JUMPDEST CALLER PUSH0 SWAP1 DUP2 MSTORE PUSH1 0x2 PUSH1 0x20 SWAP1 DUP2 MSTORE PUSH1 0x40 DUP1 DUP4 KECCAK256 DUP7 DUP5 MSTORE SWAP1 SWAP2 MSTORE SWAP1 KECCAK256 SLOAD PUSH1 0xA0 DUP3 ADD MLOAD PUSH4 0xFFFFFFFF SWAP2 DUP3 AND SWAP2 AND DUP2 LT ISZERO PUSH2 0x1212 JUMPI PUSH1 0x40 MLOAD PUSH4 0xC464FC9 PUSH1 0xE4 SHL DUP2 MSTORE PUSH1 0x4 ADD PUSH1 0x40 MLOAD DUP1 SWAP2 SUB SWAP1 REVERT JUMPDEST PUSH1 0xA0 DUP3 ADD MLOAD PUSH2 0x1221 SWAP1 DUP3 PUSH2 0x21FB JUMP JUMPDEST CALLER PUSH0 SWAP1 DUP2 MSTORE PUSH1 0x2 PUSH1 0x20 SWAP1 DUP2 MSTORE PUSH1 0x40 DUP1 DUP4 KECCAK256 DUP9 DUP5 MSTORE SWAP1 SWAP2 MSTORE DUP2 KECCAK256 DUP1 SLOAD PUSH4 0xFFFFFFFF NOT AND PUSH4 0xFFFFFFFF SWAP4 SWAP1 SWAP4 AND SWAP3 SWAP1 SWAP3 OR SWAP1 SWAP2 SSTORE DUP1 SLOAD SWAP4 POP PUSH1 0x1 SWAP1 DUP1 PUSH2 0x1265 DUP4 DUP8 PUSH2 0x1FED JUMP JUMPDEST SWAP3 POP POP DUP2 SWAP1 SSTORE POP PUSH1 0x40 MLOAD DUP1 PUSH2 0x140 ADD PUSH1 0x40 MSTORE DUP1 DUP5 DUP2 MSTORE PUSH1 0x20 ADD DUP6 DUP2 MSTORE PUSH1 0x20 ADD CALLER PUSH1 0x1 PUSH1 0x1 PUSH1 0xA0 SHL SUB AND DUP2 MSTORE PUSH1 0x20 ADD DUP4 PUSH1 0xA0 ADD MLOAD PUSH4 0xFFFFFFFF AND DUP2 MSTORE PUSH1 0x20 ADD DUP4 PUSH1 0xC0 ADD MLOAD PUSH1 0x1 DUP2 GT ISZERO PUSH2 0x12B9 JUMPI PUSH2 0x12B9 PUSH2 0x1C72 JUMP JUMPDEST DUP2 MSTORE PUSH1 0xE0 DUP5 ADD MLOAD PUSH1 0x20 DUP1 DUP4 ADD SWAP2 SWAP1 SWAP2 MSTORE PUSH5 0xFFFFFFFFFF TIMESTAMP AND PUSH1 0x40 DUP1 DUP5 ADD SWAP2 SWAP1 SWAP2 MSTORE PUSH0 PUSH1 0x60 DUP1 DUP6 ADD DUP3 SWAP1 MSTORE PUSH1 0x80 DUP1 DUP7 ADD DUP4 SWAP1 MSTORE PUSH1 0x1 PUSH1 0xA0 SWAP1 SWAP7 ADD DUP7 SWAP1 MSTORE DUP10 DUP4 MSTORE PUSH1 0x3 DUP6 MSTORE SWAP2 DUP4 SWAP1 KECCAK256 DUP7 MLOAD DUP2 SSTORE SWAP4 DUP7 ADD MLOAD DUP5 DUP7 ADD SSTORE SWAP2 DUP6 ADD MLOAD PUSH1 0x2 DUP5 ADD DUP1 SLOAD SWAP4 DUP8 ADD MLOAD PUSH4 0xFFFFFFFF AND PUSH1 0x1 PUSH1 0xA0 SHL MUL PUSH1 0x1 PUSH1 0x1 PUSH1 0xC0 SHL SUB NOT SWAP1 SWAP5 AND PUSH1 0x1 PUSH1 0x1 PUSH1 0xA0 SHL SUB SWAP1 SWAP3 AND SWAP2 SWAP1 SWAP2 OR SWAP3 SWAP1 SWAP3 OR DUP1 DUP4 SSTORE SWAP1 DUP6 ADD MLOAD SWAP3 SWAP4 PUSH1 0xFF PUSH1 0xC0 SHL NOT SWAP1 SWAP2 AND SWAP1 PUSH1 0x1 PUSH1 0xC0 SHL SWAP1 DUP5 SWAP1 DUP2 GT ISZERO PUSH2 0x136F JUMPI PUSH2 0x136F PUSH2 0x1C72 JUMP JUMPDEST MUL OR SWAP1 SSTORE POP PUSH1 0xA0 DUP3 ADD MLOAD PUSH1 0x3 DUP3 ADD SSTORE PUSH1 0xC0 DUP1 DUP4 ADD MLOAD PUSH1 0x4 SWAP1 SWAP3 ADD DUP1 SLOAD PUSH1 0xE0 DUP6 ADD MLOAD PUSH2 0x100 DUP7 ADD MLOAD PUSH2 0x120 SWAP1 SWAP7 ADD MLOAD ISZERO ISZERO PUSH1 0x1 PUSH1 0x58 SHL MUL PUSH1 0xFF PUSH1 0x58 SHL NOT SWAP7 ISZERO ISZERO PUSH1 0x1 PUSH1 0x50 SHL MUL SWAP7 SWAP1 SWAP7 AND PUSH2 0xFFFF PUSH1 0x50 SHL NOT PUSH5 0xFFFFFFFFFF SWAP3 DUP4 AND PUSH1 0x1 PUSH1 0x28 SHL MUL PUSH10 0xFFFFFFFFFFFFFFFFFFFF NOT SWAP1 SWAP5 AND SWAP3 SWAP1 SWAP7 AND SWAP2 SWAP1 SWAP2 OR SWAP2 SWAP1 SWAP2 OR SWAP4 SWAP1 SWAP4 AND SWAP3 SWAP1 SWAP3 OR SWAP3 SWAP1 SWAP3 OR SWAP1 SSTORE CALLER PUSH0 DUP2 DUP2 MSTORE PUSH1 0x8 PUSH1 0x20 SWAP1 DUP2 MSTORE PUSH1 0x40 DUP1 DUP4 KECCAK256 DUP1 SLOAD PUSH1 0x1 DUP2 DUP2 ADD DUP4 SSTORE SWAP2 DUP6 MSTORE DUP4 DUP6 KECCAK256 ADD DUP10 SWAP1 SSTORE DUP10 DUP5 MSTORE PUSH1 0x9 DUP4 MSTORE SWAP1 DUP4 KECCAK256 DUP1 SLOAD DUP1 DUP4 ADD DUP3 SSTORE SWAP1 DUP5 MSTORE SWAP2 SWAP1 SWAP3 KECCAK256 ADD DUP7 SWAP1 SSTORE SWAP2 DUP5 ADD MLOAD SWAP1 SWAP2 DUP7 SWAP2 DUP7 SWAP2 PUSH32 0xE9A02DD9F3CEED2BD34B0AD478D1D34C14A5190601EFCEED4E0B26EF13954550 SWAP2 SWAP1 DUP2 GT ISZERO PUSH2 0x1473 JUMPI PUSH2 0x1473 PUSH2 0x1C72 JUMP JUMPDEST PUSH1 0xE0 DUP8 ADD MLOAD PUSH1 0xA0 DUP9 ADD MLOAD PUSH1 0x40 DUP1 MLOAD PUSH1 0xFF SWAP1 SWAP5 AND DUP5 MSTORE PUSH1 0x20 DUP5 ADD SWAP3 SWAP1 SWAP3 MSTORE PUSH4 0xFFFFFFFF AND SWAP1 DUP3 ADD MSTORE PUSH1 0x60 ADD PUSH1 0x40 MLOAD DUP1 SWAP2 SUB SWAP1 LOG4 POP POP SWAP2 SWAP1 POP JUMP JUMPDEST PUSH0 DUP2 DUP2 MSTORE PUSH1 0x3 PUSH1 0x20 MSTORE PUSH1 0x40 SWAP1 KECCAK256 PUSH1 0x4 DUP2 ADD SLOAD PUSH1 0x1 PUSH1 0x58 SHL SWAP1 DIV PUSH1 0xFF AND PUSH2 0x14E5 JUMPI PUSH1 0x40 MLOAD PUSH4 0x22AF777 PUSH1 0xE1 SHL DUP2 MSTORE PUSH1 0x4 ADD PUSH1 0x40 MLOAD DUP1 SWAP2 SUB SWAP1 REVERT JUMPDEST PUSH1 0x4 DUP2 ADD SLOAD PUSH1 0x1 PUSH1 0x50 SHL SWAP1 DIV PUSH1 0xFF AND ISZERO PUSH2 0x1512 JUMPI PUSH1 0x40 MLOAD PUSH4 0xB8E1234F PUSH1 0xE0 SHL DUP2 MSTORE PUSH1 0x4 ADD PUSH1 0x40 MLOAD DUP1 SWAP2 SUB SWAP1 REVERT JUMPDEST PUSH0 PUSH2 0x1520 DUP3 PUSH1 0x1 ADD SLOAD PUSH2 0x1647 JUMP JUMPDEST SWAP1 POP DUP1 PUSH1 0x20 ADD MLOAD PUSH1 0x1 PUSH1 0x1 PUSH1 0xA0 SHL SUB AND CALLER PUSH1 0x1 PUSH1 0x1 PUSH1 0xA0 SHL SUB AND EQ PUSH2 0x1558 JUMPI PUSH1 0x40 MLOAD PUSH4 0x729139D9 PUSH1 0xE1 SHL DUP2 MSTORE PUSH1 0x4 ADD PUSH1 0x40 MLOAD DUP1 SWAP2 SUB SWAP1 REVERT JUMPDEST PUSH1 0x4 DUP3 ADD DUP1 SLOAD PUSH1 0x1 PUSH1 0x50 SHL PUSH11 0xFFFFFFFFFFFF0000000000 NOT SWAP1 SWAP2 AND PUSH1 0x1 PUSH1 0x28 SHL TIMESTAMP PUSH5 0xFFFFFFFFFF AND MUL OR OR SWAP1 SSTORE PUSH1 0x1 DUP3 ADD SLOAD PUSH1 0x2 DUP4 ADD SLOAD PUSH1 0x40 MLOAD PUSH1 0x1 PUSH1 0x1 PUSH1 0xA0 SHL SUB SWAP1 SWAP2 AND DUP2 MSTORE CALLER SWAP2 SWAP1 DUP6 SWAP1 PUSH32 0x3C2C0BC2AC2249ED5C8E4D05ED0ED77C5B2D050FAF9DDE1A971EBDA3CA6AED0E SWAP1 PUSH1 0x20 ADD PUSH1 0x40 MLOAD DUP1 SWAP2 SUB SWAP1 LOG4 POP POP POP JUMP JUMPDEST PUSH1 0x60 PUSH2 0x15E1 DUP3 PUSH2 0x1647 JUMP JUMPDEST POP PUSH0 DUP3 DUP2 MSTORE PUSH1 0x6 PUSH1 0x20 SWAP1 DUP2 MSTORE PUSH1 0x40 SWAP2 DUP3 SWAP1 KECCAK256 DUP1 SLOAD DUP4 MLOAD DUP2 DUP5 MUL DUP2 ADD DUP5 ADD SWAP1 SWAP5 MSTORE DUP1 DUP5 MSTORE SWAP1 SWAP2 DUP4 ADD DUP3 DUP3 DUP1 ISZERO PUSH2 0x345 JUMPI PUSH1 0x20 MUL DUP3 ADD SWAP2 SWAP1 PUSH0 MSTORE PUSH1 0x20 PUSH0 KECCAK256 SWAP1 DUP2 SLOAD PUSH1 0x1 PUSH1 0x1 PUSH1 0xA0 SHL SUB AND DUP2 MSTORE PUSH1 0x1 SWAP1 SWAP2 ADD SWAP1 PUSH1 0x20 ADD DUP1 DUP4 GT PUSH2 0xE49 JUMPI POP POP POP POP POP SWAP1 POP SWAP2 SWAP1 POP JUMP JUMPDEST PUSH2 0x164F PUSH2 0x195D JUMP JUMPDEST PUSH0 DUP3 DUP2 MSTORE PUSH1 0x1 PUSH1 0x20 DUP2 DUP2 MSTORE PUSH1 0x40 SWAP3 DUP4 SWAP1 KECCAK256 DUP4 MLOAD PUSH2 0x140 DUP2 ADD DUP6 MSTORE DUP2 SLOAD PUSH1 0x1 PUSH1 0x1 PUSH1 0xA0 SHL SUB SWAP1 DUP2 AND DUP3 MSTORE DUP3 DUP6 ADD SLOAD DUP2 AND SWAP4 DUP3 ADD SWAP4 SWAP1 SWAP4 MSTORE PUSH1 0x2 DUP3 ADD SLOAD SWAP1 SWAP3 AND SWAP4 DUP3 ADD SWAP4 SWAP1 SWAP4 MSTORE PUSH1 0x3 DUP4 ADD SLOAD PUSH1 0x60 DUP3 ADD MSTORE PUSH1 0x4 DUP4 ADD SLOAD PUSH4 0xFFFFFFFF DUP1 DUP3 AND PUSH1 0x80 DUP5 ADD MSTORE PUSH5 0x100000000 DUP3 DIV AND PUSH1 0xA0 DUP4 ADD MSTORE SWAP1 SWAP3 SWAP2 PUSH1 0xC0 DUP5 ADD SWAP2 PUSH1 0x1 PUSH1 0x40 SHL SWAP1 DIV PUSH1 0xFF AND SWAP1 DUP2 GT ISZERO PUSH2 0x16E0 JUMPI PUSH2 0x16E0 PUSH2 0x1C72 JUMP JUMPDEST PUSH1 0x1 DUP2 GT ISZERO PUSH2 0x16F1 JUMPI PUSH2 0x16F1 PUSH2 0x1C72 JUMP JUMPDEST DUP2 MSTORE PUSH1 0x5 DUP3 ADD SLOAD PUSH1 0x20 DUP3 ADD MSTORE PUSH1 0x6 SWAP1 SWAP2 ADD SLOAD PUSH1 0xFF DUP1 DUP3 AND ISZERO ISZERO PUSH1 0x40 DUP5 ADD MSTORE PUSH2 0x100 SWAP1 SWAP2 DIV AND ISZERO ISZERO PUSH1 0x60 SWAP1 SWAP2 ADD MSTORE PUSH2 0x120 DUP2 ADD MLOAD SWAP1 SWAP2 POP PUSH2 0x1744 JUMPI PUSH1 0x40 MLOAD PUSH4 0x53DADDE1 PUSH1 0xE1 SHL DUP2 MSTORE PUSH1 0x4 ADD PUSH1 0x40 MLOAD DUP1 SWAP2 SUB SWAP1 REVERT JUMPDEST SWAP2 SWAP1 POP JUMP JUMPDEST PUSH0 DUP2 PUSH1 0xFF AND PUSH1 0x12 SUB PUSH2 0x175C JUMPI POP DUP2 PUSH2 0xBDA JUMP JUMPDEST PUSH2 0x1767 DUP3 PUSH1 0x12 PUSH2 0x2218 JUMP JUMPDEST PUSH2 0x1775 SWAP1 PUSH1 0xFF AND PUSH1 0xA PUSH2 0x2311 JUMP JUMPDEST PUSH2 0x177F SWAP1 DUP5 PUSH2 0x231C JUMP JUMPDEST SWAP4 SWAP3 POP POP POP JUMP JUMPDEST PUSH1 0x40 MLOAD PUSH1 0x1 PUSH1 0x1 PUSH1 0xA0 SHL SUB DUP5 DUP2 AND PUSH1 0x24 DUP4 ADD MSTORE DUP4 DUP2 AND PUSH1 0x44 DUP4 ADD MSTORE PUSH1 0x64 DUP3 ADD DUP4 SWAP1 MSTORE PUSH0 SWAP2 DUP3 SWAP2 DUP8 AND SWAP1 PUSH1 0x84 ADD PUSH1 0x40 DUP1 MLOAD PUSH1 0x1F NOT DUP2 DUP5 SUB ADD DUP2 MSTORE SWAP2 DUP2 MSTORE PUSH1 0x20 DUP3 ADD DUP1 MLOAD PUSH1 0x1 PUSH1 0x1 PUSH1 0xE0 SHL SUB AND PUSH4 0x23B872DD PUSH1 0xE0 SHL OR SWAP1 MSTORE MLOAD PUSH2 0x17E7 SWAP2 SWAP1 PUSH2 0x2333 JUMP JUMPDEST PUSH0 PUSH1 0x40 MLOAD DUP1 DUP4 SUB DUP2 PUSH0 DUP7 GAS CALL SWAP2 POP POP RETURNDATASIZE DUP1 PUSH0 DUP2 EQ PUSH2 0x1820 JUMPI PUSH1 0x40 MLOAD SWAP2 POP PUSH1 0x1F NOT PUSH1 0x3F RETURNDATASIZE ADD AND DUP3 ADD PUSH1 0x40 MSTORE RETURNDATASIZE DUP3 MSTORE RETURNDATASIZE PUSH0 PUSH1 0x20 DUP5 ADD RETURNDATACOPY PUSH2 0x1825 JUMP JUMPDEST PUSH1 0x60 SWAP2 POP JUMPDEST POP SWAP2 POP SWAP2 POP DUP2 PUSH2 0x1848 JUMPI PUSH1 0x40 MLOAD PUSH4 0x12171D83 PUSH1 0xE3 SHL DUP2 MSTORE PUSH1 0x4 ADD PUSH1 0x40 MLOAD DUP1 SWAP2 SUB SWAP1 REVERT JUMPDEST PUSH0 DUP2 MLOAD GT DUP1 ISZERO PUSH2 0x1869 JUMPI POP DUP1 DUP1 PUSH1 0x20 ADD SWAP1 MLOAD DUP2 ADD SWAP1 PUSH2 0x1867 SWAP2 SWAP1 PUSH2 0x234E JUMP JUMPDEST ISZERO JUMPDEST ISZERO PUSH2 0x1887 JUMPI PUSH1 0x40 MLOAD PUSH4 0x12171D83 PUSH1 0xE3 SHL DUP2 MSTORE PUSH1 0x4 ADD PUSH1 0x40 MLOAD DUP1 SWAP2 SUB SWAP1 REVERT JUMPDEST POP POP POP POP POP POP JUMP JUMPDEST PUSH1 0x40 DUP1 MLOAD DUP1 DUP3 ADD SWAP1 SWAP2 MSTORE PUSH1 0x8 DUP1 DUP3 MSTORE PUSH8 0x68747470733A2F2F PUSH1 0xC0 SHL PUSH1 0x20 DUP4 ADD MSTORE DUP3 MLOAD PUSH0 SWAP3 SWAP2 GT ISZERO PUSH2 0x18C2 JUMPI POP PUSH0 SWAP3 SWAP2 POP POP JUMP JUMPDEST PUSH0 JUMPDEST DUP2 MLOAD DUP2 LT ISZERO PUSH2 0x1935 JUMPI DUP2 DUP2 DUP2 MLOAD DUP2 LT PUSH2 0x18DF JUMPI PUSH2 0x18DF PUSH2 0x1FC5 JUMP JUMPDEST PUSH1 0x20 ADD ADD MLOAD PUSH1 0xF8 SHR PUSH1 0xF8 SHL PUSH1 0x1 PUSH1 0x1 PUSH1 0xF8 SHL SUB NOT AND DUP5 DUP3 DUP2 MLOAD DUP2 LT PUSH2 0x1906 JUMPI PUSH2 0x1906 PUSH2 0x1FC5 JUMP JUMPDEST ADD PUSH1 0x20 ADD MLOAD PUSH1 0x1 PUSH1 0x1 PUSH1 0xF8 SHL SUB NOT AND EQ PUSH2 0x1923 JUMPI POP PUSH0 SWAP4 SWAP3 POP POP POP JUMP JUMPDEST PUSH2 0x192E PUSH1 0x1 DUP3 PUSH2 0x1FED JUMP JUMPDEST SWAP1 POP PUSH2 0x18C4 JUMP JUMPDEST POP PUSH1 0x1 SWAP4 SWAP3 POP POP POP JUMP JUMPDEST POP DUP1 SLOAD PUSH0 DUP3 SSTORE SWAP1 PUSH0 MSTORE PUSH1 0x20 PUSH0 KECCAK256 SWAP1 DUP2 ADD SWAP1 PUSH2 0x195A SWAP2 SWAP1 PUSH2 0x19AE JUMP JUMPDEST POP JUMP JUMPDEST PUSH1 0x40 DUP1 MLOAD PUSH2 0x140 DUP2 ADD DUP3 MSTORE PUSH0 DUP1 DUP3 MSTORE PUSH1 0x20 DUP3 ADD DUP2 SWAP1 MSTORE SWAP2 DUP2 ADD DUP3 SWAP1 MSTORE PUSH1 0x60 DUP2 ADD DUP3 SWAP1 MSTORE PUSH1 0x80 DUP2 ADD DUP3 SWAP1 MSTORE PUSH1 0xA0 DUP2 ADD DUP3 SWAP1 MSTORE SWAP1 PUSH1 0xC0 DUP3 ADD SWAP1 DUP2 MSTORE PUSH0 PUSH1 0x20 DUP3 ADD DUP2 SWAP1 MSTORE PUSH1 0x40 DUP3 ADD DUP2 SWAP1 MSTORE PUSH1 0x60 SWAP1 SWAP2 ADD MSTORE SWAP1 JUMP JUMPDEST JUMPDEST DUP1 DUP3 GT ISZERO PUSH2 0x19C2 JUMPI PUSH0 DUP2 SSTORE PUSH1 0x1 ADD PUSH2 0x19AF JUMP JUMPDEST POP SWAP1 JUMP JUMPDEST DUP1 CALLDATALOAD PUSH1 0x1 PUSH1 0x1 PUSH1 0xA0 SHL SUB DUP2 AND DUP2 EQ PUSH2 0x1744 JUMPI PUSH0 DUP1 REVERT JUMPDEST PUSH0 PUSH1 0x20 DUP3 DUP5 SUB SLT ISZERO PUSH2 0x19EC JUMPI PUSH0 DUP1 REVERT JUMPDEST PUSH2 0x177F DUP3 PUSH2 0x19C6 JUMP JUMPDEST PUSH1 0x20 DUP1 DUP3 MSTORE DUP3 MLOAD DUP3 DUP3 ADD DUP2 SWAP1 MSTORE PUSH0 SWAP2 SWAP1 DUP5 DUP3 ADD SWAP1 PUSH1 0x40 DUP6 ADD SWAP1 DUP5 JUMPDEST DUP2 DUP2 LT ISZERO PUSH2 0x1A2C JUMPI DUP4 MLOAD DUP4 MSTORE SWAP3 DUP5 ADD SWAP3 SWAP2 DUP5 ADD SWAP2 PUSH1 0x1 ADD PUSH2 0x1A10 JUMP JUMPDEST POP SWAP1 SWAP7 SWAP6 POP POP POP POP POP POP JUMP JUMPDEST PUSH0 JUMPDEST DUP4 DUP2 LT ISZERO PUSH2 0x1A52 JUMPI DUP2 DUP2 ADD MLOAD DUP4 DUP3 ADD MSTORE PUSH1 0x20 ADD PUSH2 0x1A3A JUMP JUMPDEST POP POP PUSH0 SWAP2 ADD MSTORE JUMP JUMPDEST PUSH0 DUP2 MLOAD DUP1 DUP5 MSTORE PUSH2 0x1A71 DUP2 PUSH1 0x20 DUP7 ADD PUSH1 0x20 DUP7 ADD PUSH2 0x1A38 JUMP JUMPDEST PUSH1 0x1F ADD PUSH1 0x1F NOT AND SWAP3 SWAP1 SWAP3 ADD PUSH1 0x20 ADD SWAP3 SWAP2 POP POP JUMP JUMPDEST PUSH1 0x20 DUP2 MSTORE PUSH0 DUP3 MLOAD PUSH1 0x80 PUSH1 0x20 DUP5 ADD MSTORE PUSH2 0x1AA0 PUSH1 0xA0 DUP5 ADD DUP3 PUSH2 0x1A5A JUMP JUMPDEST SWAP1 POP PUSH1 0x20 DUP5 ADD MLOAD PUSH1 0x1F NOT DUP5 DUP4 SUB ADD PUSH1 0x40 DUP6 ADD MSTORE PUSH2 0x1ABD DUP3 DUP3 PUSH2 0x1A5A JUMP JUMPDEST SWAP2 POP POP PUSH5 0xFFFFFFFFFF PUSH1 0x40 DUP6 ADD MLOAD AND PUSH1 0x60 DUP5 ADD MSTORE PUSH1 0x60 DUP5 ADD MLOAD ISZERO ISZERO PUSH1 0x80 DUP5 ADD MSTORE DUP1 SWAP2 POP POP SWAP3 SWAP2 POP POP JUMP JUMPDEST PUSH0 DUP1 DUP4 PUSH1 0x1F DUP5 ADD SLT PUSH2 0x1AF7 JUMPI PUSH0 DUP1 REVERT JUMPDEST POP DUP2 CALLDATALOAD PUSH8 0xFFFFFFFFFFFFFFFF DUP2 GT ISZERO PUSH2 0x1B0E JUMPI PUSH0 DUP1 REVERT JUMPDEST PUSH1 0x20 DUP4 ADD SWAP2 POP DUP4 PUSH1 0x20 DUP3 PUSH1 0x5 SHL DUP6 ADD ADD GT ISZERO PUSH2 0x1B28 JUMPI PUSH0 DUP1 REVERT JUMPDEST SWAP3 POP SWAP3 SWAP1 POP JUMP JUMPDEST PUSH0 DUP1 PUSH0 DUP1 PUSH0 PUSH1 0x60 DUP7 DUP9 SUB SLT ISZERO PUSH2 0x1B43 JUMPI PUSH0 DUP1 REVERT JUMPDEST DUP6 CALLDATALOAD SWAP5 POP PUSH1 0x20 DUP7 ADD CALLDATALOAD PUSH8 0xFFFFFFFFFFFFFFFF DUP1 DUP3 GT ISZERO PUSH2 0x1B61 JUMPI PUSH0 DUP1 REVERT JUMPDEST PUSH2 0x1B6D DUP10 DUP4 DUP11 ADD PUSH2 0x1AE7 JUMP JUMPDEST SWAP1 SWAP7 POP SWAP5 POP PUSH1 0x40 DUP9 ADD CALLDATALOAD SWAP2 POP DUP1 DUP3 GT ISZERO PUSH2 0x1B85 JUMPI PUSH0 DUP1 REVERT JUMPDEST POP PUSH2 0x1B92 DUP9 DUP3 DUP10 ADD PUSH2 0x1AE7 JUMP JUMPDEST SWAP7 SWAP10 SWAP6 SWAP9 POP SWAP4 SWAP7 POP SWAP3 SWAP5 SWAP4 SWAP3 POP POP POP JUMP JUMPDEST PUSH0 DUP1 PUSH1 0x40 DUP4 DUP6 SUB SLT ISZERO PUSH2 0x1BB4 JUMPI PUSH0 DUP1 REVERT JUMPDEST PUSH2 0x1BBD DUP4 PUSH2 0x19C6 JUMP JUMPDEST SWAP5 PUSH1 0x20 SWAP4 SWAP1 SWAP4 ADD CALLDATALOAD SWAP4 POP POP POP JUMP JUMPDEST PUSH0 PUSH1 0x20 DUP3 DUP5 SUB SLT ISZERO PUSH2 0x1BDB JUMPI PUSH0 DUP1 REVERT JUMPDEST POP CALLDATALOAD SWAP2 SWAP1 POP JUMP JUMPDEST PUSH0 DUP1 DUP4 PUSH1 0x1F DUP5 ADD SLT PUSH2 0x1BF2 JUMPI PUSH0 DUP1 REVERT JUMPDEST POP DUP2 CALLDATALOAD PUSH8 0xFFFFFFFFFFFFFFFF DUP2 GT ISZERO PUSH2 0x1C09 JUMPI PUSH0 DUP1 REVERT JUMPDEST PUSH1 0x20 DUP4 ADD SWAP2 POP DUP4 PUSH1 0x20 DUP3 DUP6 ADD ADD GT ISZERO PUSH2 0x1B28 JUMPI PUSH0 DUP1 REVERT JUMPDEST PUSH0 DUP1 PUSH0 DUP1 PUSH0 PUSH1 0x80 DUP7 DUP9 SUB SLT ISZERO PUSH2 0x1C34 JUMPI PUSH0 DUP1 REVERT JUMPDEST DUP6 CALLDATALOAD SWAP5 POP PUSH2 0x1C44 PUSH1 0x20 DUP8 ADD PUSH2 0x19C6 JUMP JUMPDEST SWAP4 POP PUSH1 0x40 DUP7 ADD CALLDATALOAD SWAP3 POP PUSH1 0x60 DUP7 ADD CALLDATALOAD PUSH8 0xFFFFFFFFFFFFFFFF DUP2 GT ISZERO PUSH2 0x1C66 JUMPI PUSH0 DUP1 REVERT JUMPDEST PUSH2 0x1B92 DUP9 DUP3 DUP10 ADD PUSH2 0x1BE2 JUMP JUMPDEST PUSH4 0x4E487B71 PUSH1 0xE0 SHL PUSH0 MSTORE PUSH1 0x21 PUSH1 0x4 MSTORE PUSH1 0x24 PUSH0 REVERT JUMPDEST PUSH1 0x2 DUP2 LT PUSH2 0x1CA2 JUMPI PUSH4 0x4E487B71 PUSH1 0xE0 SHL PUSH0 MSTORE PUSH1 0x21 PUSH1 0x4 MSTORE PUSH1 0x24 PUSH0 REVERT JUMPDEST SWAP1 MSTORE JUMP JUMPDEST PUSH0 PUSH2 0x140 DUP3 ADD SWAP1 POP DUP3 MLOAD DUP3 MSTORE PUSH1 0x20 DUP4 ADD MLOAD PUSH1 0x20 DUP4 ADD MSTORE PUSH1 0x40 DUP4 ADD MLOAD PUSH2 0x1CD6 PUSH1 0x40 DUP5 ADD DUP3 PUSH1 0x1 PUSH1 0x1 PUSH1 0xA0 SHL SUB AND SWAP1 MSTORE JUMP JUMPDEST POP PUSH1 0x60 DUP4 ADD MLOAD PUSH2 0x1CEE PUSH1 0x60 DUP5 ADD DUP3 PUSH4 0xFFFFFFFF AND SWAP1 MSTORE JUMP JUMPDEST POP PUSH1 0x80 DUP4 ADD MLOAD PUSH2 0x1D01 PUSH1 0x80 DUP5 ADD DUP3 PUSH2 0x1C86 JUMP JUMPDEST POP PUSH1 0xA0 DUP4 ADD MLOAD PUSH1 0xA0 DUP4 ADD MSTORE PUSH1 0xC0 DUP4 ADD MLOAD PUSH2 0x1D24 PUSH1 0xC0 DUP5 ADD DUP3 PUSH5 0xFFFFFFFFFF AND SWAP1 MSTORE JUMP JUMPDEST POP PUSH1 0xE0 DUP4 ADD MLOAD PUSH2 0x1D3D PUSH1 0xE0 DUP5 ADD DUP3 PUSH5 0xFFFFFFFFFF AND SWAP1 MSTORE JUMP JUMPDEST POP PUSH2 0x100 DUP4 DUP2 ADD MLOAD DUP1 ISZERO ISZERO DUP5 DUP4 ADD MSTORE JUMPDEST POP POP PUSH2 0x120 SWAP3 DUP4 ADD MLOAD ISZERO ISZERO SWAP2 SWAP1 SWAP3 ADD MSTORE SWAP1 JUMP JUMPDEST PUSH0 DUP1 PUSH0 DUP1 PUSH1 0x40 DUP6 DUP8 SUB SLT ISZERO PUSH2 0x1D73 JUMPI PUSH0 DUP1 REVERT JUMPDEST DUP5 CALLDATALOAD PUSH8 0xFFFFFFFFFFFFFFFF DUP1 DUP3 GT ISZERO PUSH2 0x1D8A JUMPI PUSH0 DUP1 REVERT JUMPDEST PUSH2 0x1D96 DUP9 DUP4 DUP10 ADD PUSH2 0x1BE2 JUMP JUMPDEST SWAP1 SWAP7 POP SWAP5 POP PUSH1 0x20 DUP8 ADD CALLDATALOAD SWAP2 POP DUP1 DUP3 GT ISZERO PUSH2 0x1DAE JUMPI PUSH0 DUP1 REVERT JUMPDEST POP PUSH2 0x1DBB DUP8 DUP3 DUP9 ADD PUSH2 0x1BE2 JUMP JUMPDEST SWAP6 SWAP9 SWAP5 SWAP8 POP SWAP6 POP POP POP POP JUMP JUMPDEST PUSH1 0x20 DUP1 DUP3 MSTORE DUP3 MLOAD DUP3 DUP3 ADD DUP2 SWAP1 MSTORE PUSH0 SWAP2 SWAP1 DUP5 DUP3 ADD SWAP1 PUSH1 0x40 DUP6 ADD SWAP1 DUP5 JUMPDEST DUP2 DUP2 LT ISZERO PUSH2 0x1A2C JUMPI DUP4 MLOAD PUSH1 0x1 PUSH1 0x1 PUSH1 0xA0 SHL SUB AND DUP4 MSTORE SWAP3 DUP5 ADD SWAP3 SWAP2 DUP5 ADD SWAP2 PUSH1 0x1 ADD PUSH2 0x1DE2 JUMP JUMPDEST DUP1 CALLDATALOAD PUSH4 0xFFFFFFFF DUP2 AND DUP2 EQ PUSH2 0x1744 JUMPI PUSH0 DUP1 REVERT JUMPDEST DUP1 CALLDATALOAD PUSH1 0xFF DUP2 AND DUP2 EQ PUSH2 0x1744 JUMPI PUSH0 DUP1 REVERT JUMPDEST DUP1 ISZERO ISZERO DUP2 EQ PUSH2 0x195A JUMPI PUSH0 DUP1 REVERT JUMPDEST PUSH0 DUP1 PUSH0 DUP1 PUSH0 DUP1 PUSH0 DUP1 PUSH0 DUP1 PUSH2 0x140 DUP12 DUP14 SUB SLT ISZERO PUSH2 0x1E51 JUMPI PUSH0 DUP1 REVERT JUMPDEST DUP11 CALLDATALOAD SWAP10 POP PUSH2 0x1E61 PUSH1 0x20 DUP13 ADD PUSH2 0x19C6 JUMP JUMPDEST SWAP9 POP PUSH2 0x1E6F PUSH1 0x40 DUP13 ADD PUSH2 0x19C6 JUMP JUMPDEST SWAP8 POP PUSH2 0x1E7D PUSH1 0x60 DUP13 ADD PUSH2 0x19C6 JUMP JUMPDEST SWAP7 POP PUSH1 0x80 DUP12 ADD CALLDATALOAD SWAP6 POP PUSH2 0x1E92 PUSH1 0xA0 DUP13 ADD PUSH2 0x1E07 JUMP JUMPDEST SWAP5 POP PUSH2 0x1EA0 PUSH1 0xC0 DUP13 ADD PUSH2 0x1E07 JUMP JUMPDEST SWAP4 POP PUSH2 0x1EAE PUSH1 0xE0 DUP13 ADD PUSH2 0x1E1A JUMP JUMPDEST SWAP3 POP PUSH2 0x100 DUP12 ADD CALLDATALOAD SWAP2 POP PUSH2 0x120 DUP12 ADD CALLDATALOAD PUSH2 0x1EC7 DUP2 PUSH2 0x1E2A JUMP JUMPDEST DUP1 SWAP2 POP POP SWAP3 SWAP6 SWAP9 SWAP12 SWAP2 SWAP5 SWAP8 SWAP11 POP SWAP3 SWAP6 SWAP9 POP JUMP JUMPDEST DUP2 MLOAD PUSH1 0x1 PUSH1 0x1 PUSH1 0xA0 SHL SUB AND DUP2 MSTORE PUSH2 0x140 DUP2 ADD PUSH1 0x20 DUP4 ADD MLOAD PUSH2 0x1F06 PUSH1 0x20 DUP5 ADD DUP3 PUSH1 0x1 PUSH1 0x1 PUSH1 0xA0 SHL SUB AND SWAP1 MSTORE JUMP JUMPDEST POP PUSH1 0x40 DUP4 ADD MLOAD PUSH2 0x1F21 PUSH1 0x40 DUP5 ADD DUP3 PUSH1 0x1 PUSH1 0x1 PUSH1 0xA0 SHL SUB AND SWAP1 MSTORE JUMP JUMPDEST POP PUSH1 0x60 DUP4 ADD MLOAD PUSH1 0x60 DUP4 ADD MSTORE PUSH1 0x80 DUP4 ADD MLOAD PUSH2 0x1F43 PUSH1 0x80 DUP5 ADD DUP3 PUSH4 0xFFFFFFFF AND SWAP1 MSTORE JUMP JUMPDEST POP PUSH1 0xA0 DUP4 ADD MLOAD PUSH2 0x1F5B PUSH1 0xA0 DUP5 ADD DUP3 PUSH4 0xFFFFFFFF AND SWAP1 MSTORE JUMP JUMPDEST POP PUSH1 0xC0 DUP4 ADD MLOAD PUSH2 0x1F6E PUSH1 0xC0 DUP5 ADD DUP3 PUSH2 0x1C86 JUMP JUMPDEST POP PUSH1 0xE0 DUP4 ADD MLOAD PUSH1 0xE0 DUP4 ADD MSTORE PUSH2 0x100 DUP1 DUP5 ADD MLOAD PUSH2 0x1D4D DUP3 DUP6 ADD DUP3 ISZERO ISZERO SWAP1 MSTORE JUMP JUMPDEST PUSH1 0x1 DUP2 DUP2 SHR SWAP1 DUP3 AND DUP1 PUSH2 0x1FA1 JUMPI PUSH1 0x7F DUP3 AND SWAP2 POP JUMPDEST PUSH1 0x20 DUP3 LT DUP2 SUB PUSH2 0x1FBF JUMPI PUSH4 0x4E487B71 PUSH1 0xE0 SHL PUSH0 MSTORE PUSH1 0x22 PUSH1 0x4 MSTORE PUSH1 0x24 PUSH0 REVERT JUMPDEST POP SWAP2 SWAP1 POP JUMP JUMPDEST PUSH4 0x4E487B71 PUSH1 0xE0 SHL PUSH0 MSTORE PUSH1 0x32 PUSH1 0x4 MSTORE PUSH1 0x24 PUSH0 REVERT JUMPDEST PUSH4 0x4E487B71 PUSH1 0xE0 SHL PUSH0 MSTORE PUSH1 0x11 PUSH1 0x4 MSTORE PUSH1 0x24 PUSH0 REVERT JUMPDEST DUP1 DUP3 ADD DUP1 DUP3 GT ISZERO PUSH2 0xBDA JUMPI PUSH2 0xBDA PUSH2 0x1FD9 JUMP JUMPDEST PUSH0 PUSH1 0x20 DUP3 DUP5 SUB SLT ISZERO PUSH2 0x2010 JUMPI PUSH0 DUP1 REVERT JUMPDEST PUSH2 0x177F DUP3 PUSH2 0x1E1A JUMP JUMPDEST PUSH4 0xFFFFFFFF DUP2 DUP2 AND DUP4 DUP3 AND ADD SWAP1 DUP1 DUP3 GT ISZERO PUSH2 0x2036 JUMPI PUSH2 0x2036 PUSH2 0x1FD9 JUMP JUMPDEST POP SWAP3 SWAP2 POP POP JUMP JUMPDEST DUP2 DUP4 MSTORE DUP2 DUP2 PUSH1 0x20 DUP6 ADD CALLDATACOPY POP PUSH0 DUP3 DUP3 ADD PUSH1 0x20 SWAP1 DUP2 ADD SWAP2 SWAP1 SWAP2 MSTORE PUSH1 0x1F SWAP1 SWAP2 ADD PUSH1 0x1F NOT AND SWAP1 SWAP2 ADD ADD SWAP1 JUMP JUMPDEST DUP7 DUP2 MSTORE PUSH1 0xA0 PUSH1 0x20 DUP3 ADD MSTORE PUSH0 PUSH2 0x207E PUSH1 0xA0 DUP4 ADD DUP8 DUP10 PUSH2 0x203D JUMP JUMPDEST PUSH4 0xFFFFFFFF SWAP6 DUP7 AND PUSH1 0x40 DUP5 ADD MSTORE SWAP4 SWAP1 SWAP5 AND PUSH1 0x60 DUP3 ADD MSTORE PUSH1 0x1 PUSH1 0x1 PUSH1 0xA0 SHL SUB SWAP2 SWAP1 SWAP2 AND PUSH1 0x80 SWAP1 SWAP2 ADD MSTORE SWAP5 SWAP4 POP POP POP POP JUMP JUMPDEST PUSH4 0x4E487B71 PUSH1 0xE0 SHL PUSH0 MSTORE PUSH1 0x41 PUSH1 0x4 MSTORE PUSH1 0x24 PUSH0 REVERT JUMPDEST PUSH1 0x1F DUP3 GT ISZERO PUSH2 0x2109 JUMPI DUP1 PUSH0 MSTORE PUSH1 0x20 PUSH0 KECCAK256 PUSH1 0x1F DUP5 ADD PUSH1 0x5 SHR DUP2 ADD PUSH1 0x20 DUP6 LT ISZERO PUSH2 0x20E7 JUMPI POP DUP1 JUMPDEST PUSH1 0x1F DUP5 ADD PUSH1 0x5 SHR DUP3 ADD SWAP2 POP JUMPDEST DUP2 DUP2 LT ISZERO PUSH2 0x2106 JUMPI PUSH0 DUP2 SSTORE PUSH1 0x1 ADD PUSH2 0x20F3 JUMP JUMPDEST POP POP JUMPDEST POP POP POP JUMP JUMPDEST DUP2 MLOAD PUSH8 0xFFFFFFFFFFFFFFFF DUP2 GT ISZERO PUSH2 0x2128 JUMPI PUSH2 0x2128 PUSH2 0x20AE JUMP JUMPDEST PUSH2 0x213C DUP2 PUSH2 0x2136 DUP5 SLOAD PUSH2 0x1F8D JUMP JUMPDEST DUP5 PUSH2 0x20C2 JUMP JUMPDEST PUSH1 0x20 DUP1 PUSH1 0x1F DUP4 GT PUSH1 0x1 DUP2 EQ PUSH2 0x216F JUMPI PUSH0 DUP5 ISZERO PUSH2 0x2158 JUMPI POP DUP6 DUP4 ADD MLOAD JUMPDEST PUSH0 NOT PUSH1 0x3 DUP7 SWAP1 SHL SHR NOT AND PUSH1 0x1 DUP6 SWAP1 SHL OR DUP6 SSTORE PUSH2 0x1887 JUMP JUMPDEST PUSH0 DUP6 DUP2 MSTORE PUSH1 0x20 DUP2 KECCAK256 PUSH1 0x1F NOT DUP7 AND SWAP2 JUMPDEST DUP3 DUP2 LT ISZERO PUSH2 0x219D JUMPI DUP9 DUP7 ADD MLOAD DUP3 SSTORE SWAP5 DUP5 ADD SWAP5 PUSH1 0x1 SWAP1 SWAP2 ADD SWAP1 DUP5 ADD PUSH2 0x217E JUMP JUMPDEST POP DUP6 DUP3 LT ISZERO PUSH2 0x21BA JUMPI DUP8 DUP6 ADD MLOAD PUSH0 NOT PUSH1 0x3 DUP9 SWAP1 SHL PUSH1 0xF8 AND SHR NOT AND DUP2 SSTORE JUMPDEST POP POP POP POP POP PUSH1 0x1 SWAP1 DUP2 SHL ADD SWAP1 SSTORE POP JUMP JUMPDEST PUSH1 0x40 DUP2 MSTORE PUSH0 PUSH2 0x21DD PUSH1 0x40 DUP4 ADD DUP7 DUP9 PUSH2 0x203D JUMP JUMPDEST DUP3 DUP2 SUB PUSH1 0x20 DUP5 ADD MSTORE PUSH2 0x21F0 DUP2 DUP6 DUP8 PUSH2 0x203D JUMP JUMPDEST SWAP8 SWAP7 POP POP POP POP POP POP POP JUMP JUMPDEST PUSH4 0xFFFFFFFF DUP3 DUP2 AND DUP3 DUP3 AND SUB SWAP1 DUP1 DUP3 GT ISZERO PUSH2 0x2036 JUMPI PUSH2 0x2036 PUSH2 0x1FD9 JUMP JUMPDEST PUSH1 0xFF DUP3 DUP2 AND DUP3 DUP3 AND SUB SWAP1 DUP2 GT ISZERO PUSH2 0xBDA JUMPI PUSH2 0xBDA PUSH2 0x1FD9 JUMP JUMPDEST PUSH1 0x1 DUP2 DUP2 JUMPDEST DUP1 DUP6 GT ISZERO PUSH2 0x226B JUMPI DUP2 PUSH0 NOT DIV DUP3 GT ISZERO PUSH2 0x2251 JUMPI PUSH2 0x2251 PUSH2 0x1FD9 JUMP JUMPDEST DUP1 DUP6 AND ISZERO PUSH2 0x225E JUMPI SWAP2 DUP2 MUL SWAP2 JUMPDEST SWAP4 DUP5 SHR SWAP4 SWAP1 DUP1 MUL SWAP1 PUSH2 0x2236 JUMP JUMPDEST POP SWAP3 POP SWAP3 SWAP1 POP JUMP JUMPDEST PUSH0 DUP3 PUSH2 0x2281 JUMPI POP PUSH1 0x1 PUSH2 0xBDA JUMP JUMPDEST DUP2 PUSH2 0x228D JUMPI POP PUSH0 PUSH2 0xBDA JUMP JUMPDEST DUP2 PUSH1 0x1 DUP2 EQ PUSH2 0x22A3 JUMPI PUSH1 0x2 DUP2 EQ PUSH2 0x22AD JUMPI PUSH2 0x22C9 JUMP JUMPDEST PUSH1 0x1 SWAP2 POP POP PUSH2 0xBDA JUMP JUMPDEST PUSH1 0xFF DUP5 GT ISZERO PUSH2 0x22BE JUMPI PUSH2 0x22BE PUSH2 0x1FD9 JUMP JUMPDEST POP POP PUSH1 0x1 DUP3 SHL PUSH2 0xBDA JUMP JUMPDEST POP PUSH1 0x20 DUP4 LT PUSH2 0x133 DUP4 LT AND PUSH1 0x4E DUP5 LT PUSH1 0xB DUP5 LT AND OR ISZERO PUSH2 0x22EC JUMPI POP DUP2 DUP2 EXP PUSH2 0xBDA JUMP JUMPDEST PUSH2 0x22F6 DUP4 DUP4 PUSH2 0x2231 JUMP JUMPDEST DUP1 PUSH0 NOT DIV DUP3 GT ISZERO PUSH2 0x2309 JUMPI PUSH2 0x2309 PUSH2 0x1FD9 JUMP JUMPDEST MUL SWAP4 SWAP3 POP POP POP JUMP JUMPDEST PUSH0 PUSH2 0x177F DUP4 DUP4 PUSH2 0x2273 JUMP JUMPDEST DUP1 DUP3 MUL DUP2 ISZERO DUP3 DUP3 DIV DUP5 EQ OR PUSH2 0xBDA JUMPI PUSH2 0xBDA PUSH2 0x1FD9 JUMP JUMPDEST PUSH0 DUP3 MLOAD PUSH2 0x2344 DUP2 DUP5 PUSH1 0x20 DUP8 ADD PUSH2 0x1A38 JUMP JUMPDEST SWAP2 SWAP1 SWAP2 ADD SWAP3 SWAP2 POP POP JUMP JUMPDEST PUSH0 PUSH1 0x20 DUP3 DUP5 SUB SLT ISZERO PUSH2 0x235E JUMPI PUSH0 DUP1 REVERT JUMPDEST DUP2 MLOAD PUSH2 0x177F DUP2 PUSH2 0x1E2A JUMP INVALID LOG2 PUSH5 0x6970667358 0x22 SLT KECCAK256 CALL BLOBHASH NOT JUMPDEST CHAINID 0xC6 0x25 0x2D GASPRICE DUP10 0xED 0xC5 PUSH25 0x956A504E5EEC8E74468392C70C21955A3CB49364736F6C6343 STOP ADDMOD XOR STOP CALLER "},"methodIdentifiers":{"claimReward(bytes32)":"f5414023","configureStore(bytes32,address,address,address,uint256,uint32,uint32,uint8,uint256,bool)":"c2a38801","configureStoreAcceptedTokens(bytes32,address[],uint8[])":"15ef602a","consumeReward(uint256)":"f940b313","getClaim(uint256)":"5aef2447","getProfile(address)":"0f53a470","getProgress(address,bytes32)":"31fb697c","getStore(bytes32)":"f368e15c","getStoreAcceptedTokens(bytes32)":"fcd8a5cb","getStoreClaimIds(bytes32)":"437f12ea","getStoreParticipants(bytes32)":"b0030ee2","getUserClaimIds(address)":"0bc095e2","nextClaimId()":"a0021cf1","owner()":"8da5cb5b","purchase(bytes32,address,uint256,string)":"44c94af2","setProfile(string,string)":"719e37ae"}}}}}